{
  "contractName": "MintoriaRandomizer",
  "abi": [
    {
      "inputs": [],
      "name": "getValue",
      "outputs": [
        {
          "internalType": "bytes32",
          "name": "",
          "type": "bytes32"
        }
      ],
      "stateMutability": "view",
      "type": "function",
      "constant": true
    }
  ],
  "bytecode": "0x608060405234801561001057600080fd5b5061015b806100206000396000f3fe608060405234801561001057600080fd5b506004361061002b5760003560e01c80632096525514610030575b600080fd5b61003861004a565b60405190815260200160405180910390f35b6000436100586001826100d4565b406100646002436100d4565b404261007160c8826100eb565b61007c90600161010d565b6040805160208101969096528501939093526060840191909152608083015260a082015260c00160405160208183030381529060405280519060200120905090565b634e487b7160e01b600052601160045260246000fd5b6000828210156100e6576100e66100be565b500390565b60008261010857634e487b7160e01b600052601260045260246000fd5b500690565b60008219821115610120576101206100be565b50019056fea2646970667358221220e7434163a6fedff23d37acfa4e77bf7a1f5dedcd7cf46a24a1bb4cb91003e71f64736f6c634300080d0033",
  "immutableReferences": {},
  "source": "// SPDX-License-Identifier: UNLICENSED\npragma solidity ^0.8.11;\n\ncontract MintoriaRandomizer {\n  function getValue() external view returns (bytes32) {\n    return\n      keccak256(\n        abi.encodePacked(\n          block.number,\n          blockhash(block.number - 1),\n          blockhash(block.number - 2),\n          block.timestamp,\n          (block.timestamp % 200) + 1\n        )\n      );\n  }\n}\n",
  "sourcePath": "/Users/stefan.paduraru/Projects/Personal/nft-smart-contract/src/contracts/Mintoria.randomizer.sol",
  "compiler": {
    "name": "solc",
    "version": "0.8.13+commit.abaa5c0e.Emscripten.clang"
  },
  "schemaVersion": "3.4.3",
  "updatedAt": "2022-04-22T17:22:26.305Z",
  "networkType": "ethereum",
  "devdoc": {
    "kind": "dev",
    "methods": {},
    "version": 1
  },
  "userdoc": {
    "kind": "user",
    "methods": {},
    "version": 1
  }
}