{
  "contractName": "MintoriaMain",
  "abi": [
    {
      "inputs": [
        {
          "internalType": "address",
          "name": "_mintoriaStoreContract",
          "type": "address"
        }
      ],
      "stateMutability": "nonpayable",
      "type": "constructor"
    },
    {
      "inputs": [],
      "name": "mintoriaStoreContract",
      "outputs": [
        {
          "internalType": "contract IMintoriaStoreContract",
          "name": "",
          "type": "address"
        }
      ],
      "stateMutability": "view",
      "type": "function",
      "constant": true
    },
    {
      "inputs": [
        {
          "internalType": "uint256",
          "name": "_projectId",
          "type": "uint256"
        }
      ],
      "name": "purchase",
      "outputs": [
        {
          "internalType": "uint256",
          "name": "_tokenId",
          "type": "uint256"
        }
      ],
      "stateMutability": "payable",
      "type": "function",
      "payable": true
    }
  ],
  "bytecode": "0x608060405234801561001057600080fd5b50604051610bd7380380610bd783398101604081905261002f91610054565b600080546001600160a01b0319166001600160a01b0392909216919091179055610084565b60006020828403121561006657600080fd5b81516001600160a01b038116811461007d57600080fd5b9392505050565b610b44806100936000396000f3fe6080604052600436106100295760003560e01c8063065384661461002e578063efef39a11461006b575b600080fd5b34801561003a57600080fd5b5060005461004e906001600160a01b031681565b6040516001600160a01b0390911681526020015b60405180910390f35b61007e6100793660046107a9565b61008c565b604051908152602001610062565b6000610098338361009e565b92915050565b60008054604051630457777760e31b81526004810184905282918291829182916001600160a01b03909116906322bbbbb89060240160a060405180830381865afa1580156100f0573d6000803e3d6000fd5b505050506040513d601f19601f8201168201806040525081019061011491906107cb565b50929650909450925090508061012b83600161026d565b111561018a5760405162461bcd60e51b8152602060048201526024808201527f4d6178696d756d206e756d626572206f6620697465726174696f6e732072656160448201526318da195960e21b60648201526084015b60405180910390fd5b823410156101da5760405162461bcd60e51b815260206004820181905260248201527f4d7573742073656e64206d696e696d756d2076616c756520746f206d696e74216044820152606401610181565b6101e386610280565b60008054604051630d4d151360e01b81526001600160a01b038a81166004830152602482018a905233604483015290911690630d4d1513906064016020604051808303816000875af115801561023d573d6000803e3d6000fd5b505050506040513d601f19601f82011682018060405250810190610261919061080b565b98975050505050505050565b6000610279828461083a565b9392505050565b600080808080341561077d57600054604051630457777760e31b8152600481018890526001600160a01b03909116906322bbbbb89060240160a060405180830381865afa1580156102d5573d6000803e3d6000fd5b505050506040513d601f19601f820116820180604052508101906102f991906107cb565b5050600054604051635f8439e360e01b8152600481018b9052939850919650506001600160a01b031690635f8439e390602401600060405180830381865afa158015610349573d6000803e3d6000fd5b505050506040513d6000823e601f3d908101601f19168201604052610371919081019061094d565b505060005460405163291e2b7f60e01b8152959a506001600160a01b0316965063291e2b7f95506103ac948d945060040192506107c2915050565b606060405180830381865afa1580156103c9573d6000803e3d6000fd5b505050506040513d601f19601f820116820180604052508101906103ed9190610a62565b50909250905060006103ff3486610785565b9050801561043657604051339082156108fc029083906000818181858888f19350505050158015610434573d6000803e3d6000fd5b505b600061044d87610447886064610791565b9061079d565b905060006104db60646104d560008054906101000a90046001600160a01b03166001600160a01b031663b3c4b4e66040518163ffffffff1660e01b8152600401602060405180830381865afa1580156104aa573d6000803e3d6000fd5b505050506040513d601f19601f820116820180604052508101906104ce919061080b565b859061079d565b90610791565b905080156105925760008054906101000a90046001600160a01b03166001600160a01b0316633ff0dd8e6040518163ffffffff1660e01b8152600401602060405180830381865afa158015610534573d6000803e3d6000fd5b505050506040513d601f19601f820116820180604052508101906105589190610a99565b6001600160a01b03166108fc829081150290604051600060405180830381858888f19350505050158015610590573d6000803e3d6000fd5b505b6000805460408051636e3b546560e11b8152905161060d926001600160a01b03169163dc76a8ca9160048083019260209291908290030181865afa1580156105de573d6000803e3d6000fd5b505050506040513d601f19601f82011682018060405250810190610602919061080b565b610447856064610791565b905080156106c45760008054906101000a90046001600160a01b03166001600160a01b0316638da5cb5b6040518163ffffffff1660e01b8152600401602060405180830381865afa158015610666573d6000803e3d6000fd5b505050506040513d601f19601f8201168201806040525081019061068a9190610a99565b6001600160a01b03166108fc829081150290604051600060405180830381858888f193505050501580156106c2573d6000803e3d6000fd5b505b60006106d08985610785565b905060008615610729576106e987610447846064610791565b90508015610729576040516001600160a01b0389169082156108fc029083906000818181858888f19350505050158015610727573d6000803e3d6000fd5b505b60006107358383610785565b90508015610775576040516001600160a01b038b169082156108fc029083906000818181858888f19350505050158015610773573d6000803e3d6000fd5b505b505050505050505b505050505050565b60006102798284610ab6565b60006102798284610acd565b60006102798284610aef565b6000602082840312156107bb57600080fd5b5035919050565b90815260200190565b600080600080600060a086880312156107e357600080fd5b5050835160208501516040860151606087015160809097015192989197509594509092509050565b60006020828403121561081d57600080fd5b5051919050565b634e487b7160e01b600052601160045260246000fd5b6000821982111561084d5761084d610824565b500190565b634e487b7160e01b600052604160045260246000fd5b600082601f83011261087957600080fd5b815167ffffffffffffffff8082111561089457610894610852565b604051601f8301601f19908116603f011681019082821181831017156108bc576108bc610852565b816040528381526020925086838588010111156108d857600080fd5b600091505b838210156108fa57858201830151818301840152908201906108dd565b8382111561090b5760008385830101525b9695505050505050565b6001600160a01b038116811461092a57600080fd5b50565b805161093881610915565b919050565b8051801515811461093857600080fd5b60008060008060008060008060006101208a8c03121561096c57600080fd5b895167ffffffffffffffff8082111561098457600080fd5b6109908d838e01610868565b9a5060208c01519150808211156109a657600080fd5b6109b28d838e01610868565b99506109c060408d0161092d565b985060608c01519150808211156109d657600080fd5b6109e28d838e01610868565b975060808c01519150808211156109f857600080fd5b610a048d838e01610868565b965060a08c0151915080821115610a1a57600080fd5b50610a278c828d01610868565b945050610a3660c08b0161093d565b9250610a4460e08b0161093d565b9150610a536101008b0161093d565b90509295985092959850929598565b600080600060608486031215610a7757600080fd5b8351610a8281610915565b602085015160409095015190969495509392505050565b600060208284031215610aab57600080fd5b815161027981610915565b600082821015610ac857610ac8610824565b500390565b600082610aea57634e487b7160e01b600052601260045260246000fd5b500490565b6000816000190483118215151615610b0957610b09610824565b50029056fea264697066735822122083e906e8667af02c708ce417bdaee75292e15837c6be3ec052b2c2d221e0bb3364736f6c634300080d0033",
  "immutableReferences": {},
  "source": "// SPDX-License-Identifier: UNLICENSED\n\npragma solidity ^0.8.11;\n\nimport \"@openzeppelin/contracts/utils/math/SafeMath.sol\";\nimport \"./lib/IMintoriaStoreContract.sol\";\n\ncontract MintoriaMain {\n  using SafeMath for uint256;\n  IMintoriaStoreContract public mintoriaStoreContract;\n\n  constructor(address _mintoriaStoreContract) {\n    mintoriaStoreContract = IMintoriaStoreContract(_mintoriaStoreContract);\n  }\n\n  function purchase(uint256 _projectId)\n    public\n    payable\n    returns (uint256 _tokenId)\n  {\n    return purchaseTo(msg.sender, _projectId);\n  }\n\n  function purchaseTo(address _to, uint256 _projectId)\n    private\n    returns (uint256 _tokenId)\n  {\n    uint256 feePercentage;\n    uint256 pricePerTokenInWei;\n    uint256 iterations;\n    uint256 maxIterations;\n    (\n      feePercentage,\n      pricePerTokenInWei,\n      iterations,\n      maxIterations,\n\n    ) = mintoriaStoreContract.getProjectTokenDetails(_projectId);\n    require(\n      iterations.add(1) <= maxIterations,\n      \"Maximum number of iterations reached\"\n    );\n    require(\n      msg.value >= pricePerTokenInWei,\n      \"Must send minimum value to mint!\"\n    );\n\n    _splitFunds(_projectId);\n    uint256 tokenId = mintoriaStoreContract.mint(_to, _projectId, msg.sender);\n\n    return tokenId;\n  }\n\n  function _splitFunds(uint256 _projectId) internal {\n    uint256 feePercentage;\n    uint256 pricePerTokenInWei;\n    address artistAddress;\n    address collaboratorAddress;\n    uint256 collaboratorPercentage;\n\n    if (msg.value > 0) {\n      (feePercentage, pricePerTokenInWei, , , ) = mintoriaStoreContract\n        .getProjectTokenDetails(_projectId);\n\n      (, , artistAddress, , , , , , ) = mintoriaStoreContract.getProjectDetails(\n        _projectId\n      );\n\n      (collaboratorAddress, collaboratorPercentage, ) = mintoriaStoreContract\n        .getProjectExtraPaymentDetails(_projectId);\n\n      uint256 refund = msg.value.sub(pricePerTokenInWei);\n      if (refund > 0) {\n        payable(msg.sender).transfer(refund);\n      }\n\n      uint256 totalFees = pricePerTokenInWei.div(100).mul(feePercentage);\n      uint256 mintoriaAmount = totalFees\n        .mul(mintoriaStoreContract.mintoriaFeeSplitPercentage())\n        .div(100);\n      if (mintoriaAmount > 0) {\n        mintoriaStoreContract.mintoriaAddress().transfer(mintoriaAmount);\n      }\n\n      uint256 contractOwnerAmount = totalFees.div(100).mul(\n        mintoriaStoreContract.adminFeeSplitPercentage()\n      );\n      if (contractOwnerAmount > 0) {\n        mintoriaStoreContract.owner().transfer(contractOwnerAmount);\n      }\n\n      uint256 projectFunds = pricePerTokenInWei.sub(totalFees);\n      uint256 collaboratorAmount;\n      if (collaboratorPercentage > 0) {\n        collaboratorAmount = projectFunds.div(100).mul(collaboratorPercentage);\n        if (collaboratorAmount > 0) {\n          payable(collaboratorAddress).transfer(collaboratorAmount);\n        }\n      }\n      uint256 creatorFunds = projectFunds.sub(collaboratorAmount);\n      if (creatorFunds > 0) {\n        payable(artistAddress).transfer(creatorFunds);\n      }\n    }\n  }\n}\n",
  "sourcePath": "/Users/stefan.paduraru/Projects/Personal/nft-smart-contract/src/contracts/Mintoria.main.sol",
  "compiler": {
    "name": "solc",
    "version": "0.8.13+commit.abaa5c0e.Emscripten.clang"
  },
  "schemaVersion": "3.4.3",
  "updatedAt": "2022-04-22T17:22:26.335Z",
  "networkType": "ethereum",
  "devdoc": {
    "kind": "dev",
    "methods": {},
    "version": 1
  },
  "userdoc": {
    "kind": "user",
    "methods": {},
    "version": 1
  }
}