{
  "contractName": "MintoriaStore",
  "abi": [
    {
      "inputs": [
        {
          "internalType": "string",
          "name": "_tokenName",
          "type": "string"
        },
        {
          "internalType": "string",
          "name": "_tokenSymbol",
          "type": "string"
        },
        {
          "internalType": "address",
          "name": "_mintoriaAddress",
          "type": "address"
        },
        {
          "internalType": "address",
          "name": "_mintoriaRandomizerContractAddress",
          "type": "address"
        }
      ],
      "stateMutability": "nonpayable",
      "type": "constructor"
    },
    {
      "anonymous": false,
      "inputs": [
        {
          "indexed": true,
          "internalType": "address",
          "name": "owner",
          "type": "address"
        },
        {
          "indexed": true,
          "internalType": "address",
          "name": "approved",
          "type": "address"
        },
        {
          "indexed": true,
          "internalType": "uint256",
          "name": "tokenId",
          "type": "uint256"
        }
      ],
      "name": "Approval",
      "type": "event"
    },
    {
      "anonymous": false,
      "inputs": [
        {
          "indexed": true,
          "internalType": "address",
          "name": "owner",
          "type": "address"
        },
        {
          "indexed": true,
          "internalType": "address",
          "name": "operator",
          "type": "address"
        },
        {
          "indexed": false,
          "internalType": "bool",
          "name": "approved",
          "type": "bool"
        }
      ],
      "name": "ApprovalForAll",
      "type": "event"
    },
    {
      "anonymous": false,
      "inputs": [
        {
          "indexed": true,
          "internalType": "uint256",
          "name": "_projectId",
          "type": "uint256"
        },
        {
          "indexed": true,
          "internalType": "address",
          "name": "_artistAddress",
          "type": "address"
        },
        {
          "indexed": false,
          "internalType": "string",
          "name": "_projectName",
          "type": "string"
        },
        {
          "indexed": false,
          "internalType": "uint256",
          "name": "_pricePerTokenInWei",
          "type": "uint256"
        },
        {
          "indexed": false,
          "internalType": "uint256",
          "name": "_projectFeePercentage",
          "type": "uint256"
        },
        {
          "indexed": false,
          "internalType": "bool",
          "name": "_useStorage",
          "type": "bool"
        }
      ],
      "name": "CreateProject",
      "type": "event"
    },
    {
      "anonymous": false,
      "inputs": [
        {
          "indexed": true,
          "internalType": "address",
          "name": "_to",
          "type": "address"
        },
        {
          "indexed": true,
          "internalType": "uint256",
          "name": "_tokenId",
          "type": "uint256"
        },
        {
          "indexed": true,
          "internalType": "uint256",
          "name": "_projectId",
          "type": "uint256"
        },
        {
          "indexed": false,
          "internalType": "bytes32",
          "name": "_hash",
          "type": "bytes32"
        }
      ],
      "name": "Mint",
      "type": "event"
    },
    {
      "anonymous": false,
      "inputs": [
        {
          "indexed": true,
          "internalType": "address",
          "name": "previousOwner",
          "type": "address"
        },
        {
          "indexed": true,
          "internalType": "address",
          "name": "newOwner",
          "type": "address"
        }
      ],
      "name": "OwnershipTransferred",
      "type": "event"
    },
    {
      "anonymous": false,
      "inputs": [
        {
          "indexed": true,
          "internalType": "address",
          "name": "from",
          "type": "address"
        },
        {
          "indexed": true,
          "internalType": "address",
          "name": "to",
          "type": "address"
        },
        {
          "indexed": true,
          "internalType": "uint256",
          "name": "tokenId",
          "type": "uint256"
        }
      ],
      "name": "Transfer",
      "type": "event"
    },
    {
      "anonymous": false,
      "inputs": [
        {
          "indexed": true,
          "internalType": "uint256",
          "name": "_projectId",
          "type": "uint256"
        }
      ],
      "name": "UpdateProject",
      "type": "event"
    },
    {
      "inputs": [],
      "name": "adminFeeSplitPercentage",
      "outputs": [
        {
          "internalType": "uint256",
          "name": "",
          "type": "uint256"
        }
      ],
      "stateMutability": "view",
      "type": "function",
      "constant": true
    },
    {
      "inputs": [
        {
          "internalType": "address",
          "name": "to",
          "type": "address"
        },
        {
          "internalType": "uint256",
          "name": "tokenId",
          "type": "uint256"
        }
      ],
      "name": "approve",
      "outputs": [],
      "stateMutability": "nonpayable",
      "type": "function"
    },
    {
      "inputs": [
        {
          "internalType": "address",
          "name": "owner",
          "type": "address"
        }
      ],
      "name": "balanceOf",
      "outputs": [
        {
          "internalType": "uint256",
          "name": "",
          "type": "uint256"
        }
      ],
      "stateMutability": "view",
      "type": "function",
      "constant": true
    },
    {
      "inputs": [
        {
          "internalType": "uint256",
          "name": "tokenId",
          "type": "uint256"
        }
      ],
      "name": "burn",
      "outputs": [],
      "stateMutability": "nonpayable",
      "type": "function"
    },
    {
      "inputs": [
        {
          "internalType": "uint256",
          "name": "tokenId",
          "type": "uint256"
        }
      ],
      "name": "getApproved",
      "outputs": [
        {
          "internalType": "address",
          "name": "",
          "type": "address"
        }
      ],
      "stateMutability": "view",
      "type": "function",
      "constant": true
    },
    {
      "inputs": [
        {
          "internalType": "address",
          "name": "owner",
          "type": "address"
        },
        {
          "internalType": "address",
          "name": "operator",
          "type": "address"
        }
      ],
      "name": "isApprovedForAll",
      "outputs": [
        {
          "internalType": "bool",
          "name": "",
          "type": "bool"
        }
      ],
      "stateMutability": "view",
      "type": "function",
      "constant": true
    },
    {
      "inputs": [
        {
          "internalType": "address",
          "name": "",
          "type": "address"
        }
      ],
      "name": "minters",
      "outputs": [
        {
          "internalType": "bool",
          "name": "",
          "type": "bool"
        }
      ],
      "stateMutability": "view",
      "type": "function",
      "constant": true
    },
    {
      "inputs": [],
      "name": "mintoriaAddress",
      "outputs": [
        {
          "internalType": "address",
          "name": "",
          "type": "address"
        }
      ],
      "stateMutability": "view",
      "type": "function",
      "constant": true
    },
    {
      "inputs": [],
      "name": "mintoriaFeeSplitPercentage",
      "outputs": [
        {
          "internalType": "uint256",
          "name": "",
          "type": "uint256"
        }
      ],
      "stateMutability": "view",
      "type": "function",
      "constant": true
    },
    {
      "inputs": [],
      "name": "mintoriaRandomizerContract",
      "outputs": [
        {
          "internalType": "contract IMintoriaRandomizer",
          "name": "",
          "type": "address"
        }
      ],
      "stateMutability": "view",
      "type": "function",
      "constant": true
    },
    {
      "inputs": [],
      "name": "name",
      "outputs": [
        {
          "internalType": "string",
          "name": "",
          "type": "string"
        }
      ],
      "stateMutability": "view",
      "type": "function",
      "constant": true
    },
    {
      "inputs": [],
      "name": "nextProjectId",
      "outputs": [
        {
          "internalType": "uint256",
          "name": "",
          "type": "uint256"
        }
      ],
      "stateMutability": "view",
      "type": "function",
      "constant": true
    },
    {
      "inputs": [
        {
          "internalType": "address",
          "name": "",
          "type": "address"
        }
      ],
      "name": "operators",
      "outputs": [
        {
          "internalType": "bool",
          "name": "",
          "type": "bool"
        }
      ],
      "stateMutability": "view",
      "type": "function",
      "constant": true
    },
    {
      "inputs": [],
      "name": "owner",
      "outputs": [
        {
          "internalType": "address",
          "name": "",
          "type": "address"
        }
      ],
      "stateMutability": "view",
      "type": "function",
      "constant": true
    },
    {
      "inputs": [
        {
          "internalType": "uint256",
          "name": "tokenId",
          "type": "uint256"
        }
      ],
      "name": "ownerOf",
      "outputs": [
        {
          "internalType": "address",
          "name": "",
          "type": "address"
        }
      ],
      "stateMutability": "view",
      "type": "function",
      "constant": true
    },
    {
      "inputs": [],
      "name": "renounceOwnership",
      "outputs": [],
      "stateMutability": "nonpayable",
      "type": "function"
    },
    {
      "inputs": [
        {
          "internalType": "address",
          "name": "from",
          "type": "address"
        },
        {
          "internalType": "address",
          "name": "to",
          "type": "address"
        },
        {
          "internalType": "uint256",
          "name": "tokenId",
          "type": "uint256"
        }
      ],
      "name": "safeTransferFrom",
      "outputs": [],
      "stateMutability": "nonpayable",
      "type": "function"
    },
    {
      "inputs": [
        {
          "internalType": "address",
          "name": "from",
          "type": "address"
        },
        {
          "internalType": "address",
          "name": "to",
          "type": "address"
        },
        {
          "internalType": "uint256",
          "name": "tokenId",
          "type": "uint256"
        },
        {
          "internalType": "bytes",
          "name": "_data",
          "type": "bytes"
        }
      ],
      "name": "safeTransferFrom",
      "outputs": [],
      "stateMutability": "nonpayable",
      "type": "function"
    },
    {
      "inputs": [
        {
          "internalType": "address",
          "name": "operator",
          "type": "address"
        },
        {
          "internalType": "bool",
          "name": "approved",
          "type": "bool"
        }
      ],
      "name": "setApprovalForAll",
      "outputs": [],
      "stateMutability": "nonpayable",
      "type": "function"
    },
    {
      "inputs": [],
      "name": "symbol",
      "outputs": [
        {
          "internalType": "string",
          "name": "",
          "type": "string"
        }
      ],
      "stateMutability": "view",
      "type": "function",
      "constant": true
    },
    {
      "inputs": [
        {
          "internalType": "uint256",
          "name": "index",
          "type": "uint256"
        }
      ],
      "name": "tokenByIndex",
      "outputs": [
        {
          "internalType": "uint256",
          "name": "",
          "type": "uint256"
        }
      ],
      "stateMutability": "view",
      "type": "function",
      "constant": true
    },
    {
      "inputs": [
        {
          "internalType": "address",
          "name": "owner",
          "type": "address"
        },
        {
          "internalType": "uint256",
          "name": "index",
          "type": "uint256"
        }
      ],
      "name": "tokenOfOwnerByIndex",
      "outputs": [
        {
          "internalType": "uint256",
          "name": "",
          "type": "uint256"
        }
      ],
      "stateMutability": "view",
      "type": "function",
      "constant": true
    },
    {
      "inputs": [],
      "name": "totalSupply",
      "outputs": [
        {
          "internalType": "uint256",
          "name": "",
          "type": "uint256"
        }
      ],
      "stateMutability": "view",
      "type": "function",
      "constant": true
    },
    {
      "inputs": [
        {
          "internalType": "address",
          "name": "from",
          "type": "address"
        },
        {
          "internalType": "address",
          "name": "to",
          "type": "address"
        },
        {
          "internalType": "uint256",
          "name": "tokenId",
          "type": "uint256"
        }
      ],
      "name": "transferFrom",
      "outputs": [],
      "stateMutability": "nonpayable",
      "type": "function"
    },
    {
      "inputs": [
        {
          "internalType": "address",
          "name": "newOwner",
          "type": "address"
        }
      ],
      "name": "transferOwnership",
      "outputs": [],
      "stateMutability": "nonpayable",
      "type": "function"
    },
    {
      "inputs": [
        {
          "internalType": "address",
          "name": "_mintoriaAddress",
          "type": "address"
        }
      ],
      "name": "setMintoriaAddress",
      "outputs": [],
      "stateMutability": "nonpayable",
      "type": "function"
    },
    {
      "inputs": [
        {
          "internalType": "uint256",
          "name": "_mintoriaFeeSplitPercentage",
          "type": "uint256"
        }
      ],
      "name": "setMintoriaFeeSplitPercentage",
      "outputs": [],
      "stateMutability": "nonpayable",
      "type": "function"
    },
    {
      "inputs": [
        {
          "internalType": "uint256",
          "name": "_adminFeeSplitPercentage",
          "type": "uint256"
        }
      ],
      "name": "setAdminFeeSplitPercentage",
      "outputs": [],
      "stateMutability": "nonpayable",
      "type": "function"
    },
    {
      "inputs": [
        {
          "internalType": "address",
          "name": "_mintoriaRandomizerContract",
          "type": "address"
        }
      ],
      "name": "setRandomizerAddress",
      "outputs": [],
      "stateMutability": "nonpayable",
      "type": "function"
    },
    {
      "inputs": [
        {
          "internalType": "address",
          "name": "_address",
          "type": "address"
        }
      ],
      "name": "addMintRights",
      "outputs": [],
      "stateMutability": "nonpayable",
      "type": "function"
    },
    {
      "inputs": [
        {
          "internalType": "address",
          "name": "_address",
          "type": "address"
        }
      ],
      "name": "removeMintRights",
      "outputs": [],
      "stateMutability": "nonpayable",
      "type": "function"
    },
    {
      "inputs": [
        {
          "internalType": "address",
          "name": "_address",
          "type": "address"
        }
      ],
      "name": "addOperatingRights",
      "outputs": [],
      "stateMutability": "nonpayable",
      "type": "function"
    },
    {
      "inputs": [
        {
          "internalType": "address",
          "name": "_address",
          "type": "address"
        }
      ],
      "name": "removeOperatingRights",
      "outputs": [],
      "stateMutability": "nonpayable",
      "type": "function"
    },
    {
      "inputs": [
        {
          "internalType": "address",
          "name": "_artistAddress",
          "type": "address"
        },
        {
          "internalType": "string",
          "name": "_projectName",
          "type": "string"
        },
        {
          "internalType": "uint256",
          "name": "_pricePerTokenInWei",
          "type": "uint256"
        },
        {
          "internalType": "uint256",
          "name": "_feePercentage",
          "type": "uint256"
        },
        {
          "internalType": "bool",
          "name": "_useStorage",
          "type": "bool"
        }
      ],
      "name": "createProject",
      "outputs": [],
      "stateMutability": "nonpayable",
      "type": "function"
    },
    {
      "inputs": [
        {
          "internalType": "uint256",
          "name": "_projectId",
          "type": "uint256"
        }
      ],
      "name": "getProjectDetails",
      "outputs": [
        {
          "internalType": "string",
          "name": "projectName",
          "type": "string"
        },
        {
          "internalType": "string",
          "name": "artist",
          "type": "string"
        },
        {
          "internalType": "address",
          "name": "artistAddress",
          "type": "address"
        },
        {
          "internalType": "string",
          "name": "description",
          "type": "string"
        },
        {
          "internalType": "string",
          "name": "website",
          "type": "string"
        },
        {
          "internalType": "string",
          "name": "license",
          "type": "string"
        },
        {
          "internalType": "bool",
          "name": "paused",
          "type": "bool"
        },
        {
          "internalType": "bool",
          "name": "active",
          "type": "bool"
        },
        {
          "internalType": "bool",
          "name": "locked",
          "type": "bool"
        }
      ],
      "stateMutability": "view",
      "type": "function",
      "constant": true
    },
    {
      "inputs": [
        {
          "internalType": "uint256",
          "name": "_projectId",
          "type": "uint256"
        }
      ],
      "name": "getProjectTokenDetails",
      "outputs": [
        {
          "internalType": "uint256",
          "name": "feePercentage",
          "type": "uint256"
        },
        {
          "internalType": "uint256",
          "name": "pricePerTokenInWei",
          "type": "uint256"
        },
        {
          "internalType": "uint256",
          "name": "iterations",
          "type": "uint256"
        },
        {
          "internalType": "uint256",
          "name": "maxIterations",
          "type": "uint256"
        },
        {
          "internalType": "uint256",
          "name": "maxTokensPerAddress",
          "type": "uint256"
        }
      ],
      "stateMutability": "view",
      "type": "function",
      "constant": true
    },
    {
      "inputs": [
        {
          "internalType": "uint256",
          "name": "_projectId",
          "type": "uint256"
        }
      ],
      "name": "getProjectURIDetails",
      "outputs": [
        {
          "internalType": "string",
          "name": "baseURI",
          "type": "string"
        },
        {
          "internalType": "string",
          "name": "baseIpfsURI",
          "type": "string"
        },
        {
          "internalType": "bool",
          "name": "useStorage",
          "type": "bool"
        }
      ],
      "stateMutability": "view",
      "type": "function",
      "constant": true
    },
    {
      "inputs": [
        {
          "internalType": "uint256",
          "name": "_projectId",
          "type": "uint256"
        }
      ],
      "name": "getProjectExtraPaymentDetails",
      "outputs": [
        {
          "internalType": "address",
          "name": "collaboratorAddress",
          "type": "address"
        },
        {
          "internalType": "uint256",
          "name": "collaboratorPercentage",
          "type": "uint256"
        },
        {
          "internalType": "uint256",
          "name": "royaltyFeePercentage",
          "type": "uint256"
        }
      ],
      "stateMutability": "view",
      "type": "function",
      "constant": true
    },
    {
      "inputs": [
        {
          "internalType": "uint256",
          "name": "_projectId",
          "type": "uint256"
        }
      ],
      "name": "getProjectScriptDetails",
      "outputs": [
        {
          "internalType": "string",
          "name": "scriptMetadata",
          "type": "string"
        },
        {
          "internalType": "uint256",
          "name": "scriptChunksCount",
          "type": "uint256"
        }
      ],
      "stateMutability": "view",
      "type": "function",
      "constant": true
    },
    {
      "inputs": [
        {
          "internalType": "uint256",
          "name": "_projectId",
          "type": "uint256"
        },
        {
          "internalType": "uint256",
          "name": "_index",
          "type": "uint256"
        }
      ],
      "name": "getProjectScriptChunkByIndex",
      "outputs": [
        {
          "internalType": "string",
          "name": "",
          "type": "string"
        }
      ],
      "stateMutability": "view",
      "type": "function",
      "constant": true
    },
    {
      "inputs": [
        {
          "internalType": "uint256",
          "name": "_projectId",
          "type": "uint256"
        }
      ],
      "name": "getProjectTokens",
      "outputs": [
        {
          "internalType": "uint256[]",
          "name": "",
          "type": "uint256[]"
        }
      ],
      "stateMutability": "view",
      "type": "function",
      "constant": true
    },
    {
      "inputs": [
        {
          "internalType": "uint256",
          "name": "_projectId",
          "type": "uint256"
        },
        {
          "internalType": "string",
          "name": "_name",
          "type": "string"
        }
      ],
      "name": "setProjectName",
      "outputs": [],
      "stateMutability": "nonpayable",
      "type": "function"
    },
    {
      "inputs": [
        {
          "internalType": "uint256",
          "name": "_projectId",
          "type": "uint256"
        },
        {
          "internalType": "string",
          "name": "_artistName",
          "type": "string"
        }
      ],
      "name": "setProjectArtistName",
      "outputs": [],
      "stateMutability": "nonpayable",
      "type": "function"
    },
    {
      "inputs": [
        {
          "internalType": "uint256",
          "name": "_projectId",
          "type": "uint256"
        },
        {
          "internalType": "address",
          "name": "_artistAddress",
          "type": "address"
        }
      ],
      "name": "setProjectArtistAddress",
      "outputs": [],
      "stateMutability": "nonpayable",
      "type": "function"
    },
    {
      "inputs": [
        {
          "internalType": "uint256",
          "name": "_projectId",
          "type": "uint256"
        },
        {
          "internalType": "string",
          "name": "_description",
          "type": "string"
        }
      ],
      "name": "setProjectDescription",
      "outputs": [],
      "stateMutability": "nonpayable",
      "type": "function"
    },
    {
      "inputs": [
        {
          "internalType": "uint256",
          "name": "_projectId",
          "type": "uint256"
        },
        {
          "internalType": "string",
          "name": "_website",
          "type": "string"
        }
      ],
      "name": "setProjectWebsite",
      "outputs": [],
      "stateMutability": "nonpayable",
      "type": "function"
    },
    {
      "inputs": [
        {
          "internalType": "uint256",
          "name": "_projectId",
          "type": "uint256"
        },
        {
          "internalType": "string",
          "name": "_license",
          "type": "string"
        }
      ],
      "name": "setProjectLicense",
      "outputs": [],
      "stateMutability": "nonpayable",
      "type": "function"
    },
    {
      "inputs": [
        {
          "internalType": "uint256",
          "name": "_projectId",
          "type": "uint256"
        },
        {
          "internalType": "uint256",
          "name": "_pricePerTokenInWei",
          "type": "uint256"
        }
      ],
      "name": "setProjectPricePerTokenInWei",
      "outputs": [],
      "stateMutability": "nonpayable",
      "type": "function"
    },
    {
      "inputs": [
        {
          "internalType": "uint256",
          "name": "_projectId",
          "type": "uint256"
        },
        {
          "internalType": "uint256",
          "name": "_maxIterations",
          "type": "uint256"
        }
      ],
      "name": "setProjectMaxIterations",
      "outputs": [],
      "stateMutability": "nonpayable",
      "type": "function"
    },
    {
      "inputs": [
        {
          "internalType": "uint256",
          "name": "_projectId",
          "type": "uint256"
        },
        {
          "internalType": "uint256",
          "name": "_maxTokensPerAddress",
          "type": "uint256"
        }
      ],
      "name": "setProjectMaxTokensPerAddress",
      "outputs": [],
      "stateMutability": "nonpayable",
      "type": "function"
    },
    {
      "inputs": [
        {
          "internalType": "uint256",
          "name": "_projectId",
          "type": "uint256"
        },
        {
          "internalType": "uint256",
          "name": "_feePercentage",
          "type": "uint256"
        }
      ],
      "name": "setProjectFeePercentage",
      "outputs": [],
      "stateMutability": "nonpayable",
      "type": "function"
    },
    {
      "inputs": [
        {
          "internalType": "uint256",
          "name": "_projectId",
          "type": "uint256"
        },
        {
          "internalType": "string",
          "name": "_baseURI",
          "type": "string"
        }
      ],
      "name": "setProjectBaseURI",
      "outputs": [],
      "stateMutability": "nonpayable",
      "type": "function"
    },
    {
      "inputs": [
        {
          "internalType": "uint256",
          "name": "_projectId",
          "type": "uint256"
        },
        {
          "internalType": "string",
          "name": "_baseIpfsURI",
          "type": "string"
        }
      ],
      "name": "setProjectBaseIpfsURI",
      "outputs": [],
      "stateMutability": "nonpayable",
      "type": "function"
    },
    {
      "inputs": [
        {
          "internalType": "uint256",
          "name": "_projectId",
          "type": "uint256"
        },
        {
          "internalType": "address",
          "name": "_collaboratorAddress",
          "type": "address"
        },
        {
          "internalType": "uint256",
          "name": "_collaboratorPercentage",
          "type": "uint256"
        }
      ],
      "name": "setProjectCollaborator",
      "outputs": [],
      "stateMutability": "nonpayable",
      "type": "function"
    },
    {
      "inputs": [
        {
          "internalType": "uint256",
          "name": "_projectId",
          "type": "uint256"
        },
        {
          "internalType": "uint256",
          "name": "_royaltyFeePercentage",
          "type": "uint256"
        }
      ],
      "name": "setProjectRoyaltyFeePercentage",
      "outputs": [],
      "stateMutability": "nonpayable",
      "type": "function"
    },
    {
      "inputs": [
        {
          "internalType": "uint256",
          "name": "_projectId",
          "type": "uint256"
        },
        {
          "internalType": "string",
          "name": "_scriptChunk",
          "type": "string"
        }
      ],
      "name": "addProjectScriptChunk",
      "outputs": [],
      "stateMutability": "nonpayable",
      "type": "function"
    },
    {
      "inputs": [
        {
          "internalType": "uint256",
          "name": "_projectId",
          "type": "uint256"
        },
        {
          "internalType": "uint256",
          "name": "_index",
          "type": "uint256"
        },
        {
          "internalType": "string",
          "name": "_scriptChunk",
          "type": "string"
        }
      ],
      "name": "setProjectScriptChunkByIndex",
      "outputs": [],
      "stateMutability": "nonpayable",
      "type": "function"
    },
    {
      "inputs": [
        {
          "internalType": "uint256",
          "name": "_projectId",
          "type": "uint256"
        }
      ],
      "name": "removeProjectLastScriptChunk",
      "outputs": [],
      "stateMutability": "nonpayable",
      "type": "function"
    },
    {
      "inputs": [
        {
          "internalType": "uint256",
          "name": "_projectId",
          "type": "uint256"
        },
        {
          "internalType": "string",
          "name": "_scriptMetadata",
          "type": "string"
        }
      ],
      "name": "setProjectScriptMetadata",
      "outputs": [],
      "stateMutability": "nonpayable",
      "type": "function"
    },
    {
      "inputs": [
        {
          "internalType": "uint256",
          "name": "_projectId",
          "type": "uint256"
        }
      ],
      "name": "toggleActiveProject",
      "outputs": [],
      "stateMutability": "nonpayable",
      "type": "function"
    },
    {
      "inputs": [
        {
          "internalType": "uint256",
          "name": "_projectId",
          "type": "uint256"
        }
      ],
      "name": "togglePausedProject",
      "outputs": [],
      "stateMutability": "nonpayable",
      "type": "function"
    },
    {
      "inputs": [
        {
          "internalType": "uint256",
          "name": "_projectId",
          "type": "uint256"
        }
      ],
      "name": "toggleLockedProject",
      "outputs": [],
      "stateMutability": "nonpayable",
      "type": "function"
    },
    {
      "inputs": [
        {
          "internalType": "uint256",
          "name": "_projectId",
          "type": "uint256"
        }
      ],
      "name": "toggleProjectStorage",
      "outputs": [],
      "stateMutability": "nonpayable",
      "type": "function"
    },
    {
      "inputs": [
        {
          "internalType": "uint256",
          "name": "_tokenId",
          "type": "uint256"
        }
      ],
      "name": "getTokenById",
      "outputs": [
        {
          "internalType": "uint256",
          "name": "projectId",
          "type": "uint256"
        },
        {
          "internalType": "bytes32",
          "name": "hash",
          "type": "bytes32"
        }
      ],
      "stateMutability": "view",
      "type": "function",
      "constant": true
    },
    {
      "inputs": [
        {
          "internalType": "address",
          "name": "_to",
          "type": "address"
        },
        {
          "internalType": "uint256",
          "name": "_projectId",
          "type": "uint256"
        },
        {
          "internalType": "address",
          "name": "_by",
          "type": "address"
        }
      ],
      "name": "mint",
      "outputs": [
        {
          "internalType": "uint256",
          "name": "_tokenId",
          "type": "uint256"
        }
      ],
      "stateMutability": "nonpayable",
      "type": "function"
    },
    {
      "inputs": [
        {
          "internalType": "uint256",
          "name": "_tokenId",
          "type": "uint256"
        }
      ],
      "name": "tokenURI",
      "outputs": [
        {
          "internalType": "string",
          "name": "",
          "type": "string"
        }
      ],
      "stateMutability": "view",
      "type": "function",
      "constant": true
    },
    {
      "inputs": [
        {
          "internalType": "uint256",
          "name": "_tokenId",
          "type": "uint256"
        },
        {
          "internalType": "uint256",
          "name": "_salePrice",
          "type": "uint256"
        }
      ],
      "name": "royaltyInfo",
      "outputs": [
        {
          "internalType": "address",
          "name": "receiver",
          "type": "address"
        },
        {
          "internalType": "uint256",
          "name": "royaltyAmount",
          "type": "uint256"
        }
      ],
      "stateMutability": "view",
      "type": "function",
      "constant": true
    },
    {
      "inputs": [
        {
          "internalType": "bytes4",
          "name": "interfaceId",
          "type": "bytes4"
        }
      ],
      "name": "supportsInterface",
      "outputs": [
        {
          "internalType": "bool",
          "name": "",
          "type": "bool"
        }
      ],
      "stateMutability": "view",
      "type": "function",
      "constant": true
    }
  ],
  "bytecode": "0x60806040526050600d556014600e5560016013553480156200002057600080fd5b5060405162004ce838038062004ce88339810160408190526200004391620002dc565b8351849084906200005c9060009060208501906200014c565b508051620000729060019060208401906200014c565b5050506200008f62000089620000f660201b60201c565b620000fa565b600c80546001600160a01b039384166001600160a01b031991821617909155600b80549290931691161790555050336000908152600f60209081526040808320805460ff1990811660019081179092556010909352922080549091169091179055620003a7565b3390565b600a80546001600160a01b038381166001600160a01b0319831681179093556040519116919082907f8be0079c531659141344cd1fd0a4f28419497f9722a3daafe3b4186f6b6457e090600090a35050565b8280546200015a906200036b565b90600052602060002090601f0160209004810192826200017e5760008555620001c9565b82601f106200019957805160ff1916838001178555620001c9565b82800160010185558215620001c9579182015b82811115620001c9578251825591602001919060010190620001ac565b50620001d7929150620001db565b5090565b5b80821115620001d75760008155600101620001dc565b634e487b7160e01b600052604160045260246000fd5b600082601f8301126200021a57600080fd5b81516001600160401b0380821115620002375762000237620001f2565b604051601f8301601f19908116603f01168101908282118183101715620002625762000262620001f2565b816040528381526020925086838588010111156200027f57600080fd5b600091505b83821015620002a3578582018301518183018401529082019062000284565b83821115620002b55760008385830101525b9695505050505050565b80516001600160a01b0381168114620002d757600080fd5b919050565b60008060008060808587031215620002f357600080fd5b84516001600160401b03808211156200030b57600080fd5b620003198883890162000208565b955060208701519150808211156200033057600080fd5b506200033f8782880162000208565b9350506200035060408601620002bf565b91506200036060608601620002bf565b905092959194509250565b600181811c908216806200038057607f821691505b602082108103620003a157634e487b7160e01b600052602260045260246000fd5b50919050565b61493180620003b76000396000f3fe608060405234801561001057600080fd5b50600436106103fc5760003560e01c80637519986e11610215578063b88d4fde11610125578063ed25e8cf116100b8578063f2fde38b11610087578063f2fde38b14610a0e578063f46eccc414610a21578063f528020c14610a44578063f586020b14610a57578063f93df8cf14610a6a57600080fd5b8063ed25e8cf146109c2578063ef77c9de146109d5578063f0d53074146109e8578063f1abd7de146109fb57600080fd5b8063d69cd85c116100f4578063d69cd85c14610961578063dc76a8ca14610974578063e935b7b11461097d578063e985e9c51461098657600080fd5b8063b88d4fde14610915578063bd01c3c014610928578063c87b56dd1461093b578063cf431cfe1461094e57600080fd5b806396738edd116101a8578063a22cb46511610177578063a22cb465146108c0578063a875f57f146108d3578063ab1b3322146108e6578063aeb20845146108f9578063b3c4b4e61461090c57600080fd5b806396738edd1461087457806396e4c765146108875780639b6317e91461089a5780639d79655c146108ad57600080fd5b80638882e19b116101e45780638882e19b146108285780638d01ce2b1461083b5780638da5cb5b1461085b57806395d89b411461086c57600080fd5b80637519986e146107b25780637b587467146107c55780637bdc60d9146107d8578063869b51fe1461081557600080fd5b80632a55205a1161031057806349b59bca116102a35780635f8439e3116102725780635f8439e314610749578063613f1043146107715780636352211e1461078457806370a0823114610797578063715018a6146107aa57600080fd5b806349b59bca146106ee5780634e187e21146107105780634f6ccce7146107235780635347bd7f1461073657600080fd5b80633ff0dd8e116102df5780633ff0dd8e146106a257806342842e0e146106b557806342966c68146106c8578063439031a5146106db57600080fd5b80632a55205a146106375780632f08dd02146106695780632f745c591461067c5780633c216f531461068f57600080fd5b8063137b3fd7116103935780631928e1be116103625780631928e1be146105375780631b9084351461054a57806322bbbbb81461055d57806323b872dd146105c5578063291e2b7f146105d857600080fd5b8063137b3fd7146104e657806313e7c9d8146104f9578063157efb771461051c57806318160ddd1461052f57600080fd5b80630c2e038a116103cf5780630c2e038a1461047e5780630d4d1513146104915780630d78115e146104b257806311df9264146104d357600080fd5b806301ffc9a71461040157806306fdde0314610429578063081812fc1461043e578063095ea7b314610469575b600080fd5b61041461040f366004613f1a565b610a7d565b60405190151581526020015b60405180910390f35b610431610aae565b6040516104209190613f8f565b61045161044c366004613fa2565b610b40565b6040516001600160a01b039091168152602001610420565b61047c610477366004613fd7565b610bda565b005b61047c61048c3660046140ad565b610cef565b6104a461049f3660046140f4565b610d88565b604051908152602001610420565b6104c56104c0366004613fa2565b61102b565b604051610420929190614130565b61047c6104e1366004613fa2565b6110e4565b61047c6104f4366004614152565b611260565b6104146105073660046141a2565b600f6020526000908152604090205460ff1681565b61047c61052a3660046141bd565b611395565b6008546104a4565b61047c6105453660046140ad565b61143b565b61047c610558366004613fa2565b6114b5565b61059d61056b366004613fa2565b6000908152601160205260409020600c810154600b820154600383015460048401546005909401549294919390929091565b604080519586526020860194909452928401919091526060830152608082015260a001610420565b61047c6105d33660046141df565b611526565b6106126105e6366004613fa2565b6000908152601160205260409020600d810154600e820154600f909201546001600160a01b0390911692565b604080516001600160a01b039094168452602084019290925290820152606001610420565b61064a6106453660046141bd565b611558565b604080516001600160a01b039093168352602083019190915201610420565b61047c610677366004613fa2565b61161f565b6104a461068a366004613fd7565b6116c1565b61043161069d3660046141bd565b611757565b600c54610451906001600160a01b031681565b61047c6106c33660046141df565b611807565b61047c6106d6366004613fa2565b611822565b61047c6106e9366004613fa2565b61189c565b6107016106fc366004613fa2565b61190d565b6040516104209392919061421b565b61047c61071e366004613fa2565b611a6d565b6104a4610731366004613fa2565b611b09565b61047c6107443660046141a2565b611b9c565b61075c610757366004613fa2565b611c07565b60405161042099989796959493929190614253565b61047c61077f3660046141bd565b611f87565b610451610792366004613fa2565b612106565b6104a46107a53660046141a2565b61217d565b61047c612204565b61047c6107c03660046140ad565b61223a565b61047c6107d33660046141a2565b612314565b6108006107e6366004613fa2565b600090815260126020526040902080546001909101549091565b60408051928352602083019190915201610420565b61047c6108233660046140ad565b61235f565b61047c6108363660046140ad565b6123d9565b61084e610849366004613fa2565b6124ad565b60405161042091906142eb565b600a546001600160a01b0316610451565b610431612512565b61047c6108823660046141a2565b612521565b61047c610895366004613fa2565b61256f565b61047c6108a8366004613fa2565b6125c1565b61047c6108bb3660046140ad565b612702565b61047c6108ce36600461433f565b6127b6565b61047c6108e13660046141bd565b61287a565b61047c6108f4366004614372565b6128fd565b61047c6109073660046140ad565b6129c1565b6104a4600e5481565b61047c610923366004614397565b612a75565b61047c6109363660046141a2565b612aad565b610431610949366004613fa2565b612af8565b61047c61095c366004614413565b612bad565b61047c61096f3660046141a2565b612cd5565b6104a4600d5481565b6104a460135481565b610414610994366004614485565b6001600160a01b03918216600090815260056020908152604080832093909416825291909152205460ff1690565b61047c6109d03660046140ad565b612d23565b61047c6109e33660046141bd565b612d9d565b61047c6109f63660046140ad565b612e57565b61047c610a093660046141a2565b612f05565b61047c610a1c3660046141a2565b612f56565b610414610a2f3660046141a2565b60106020526000908152604090205460ff1681565b61047c610a523660046141bd565b612fee565b61047c610a653660046144af565b6130f2565b600b54610451906001600160a01b031681565b6000636ad56fd360e11b6001600160e01b0319831601610a9f57506001919050565b610aa88261318b565b92915050565b606060008054610abd906144d2565b80601f0160208091040260200160405190810160405280929190818152602001828054610ae9906144d2565b8015610b365780601f10610b0b57610100808354040283529160200191610b36565b820191906000526020600020905b815481529060010190602001808311610b1957829003601f168201915b5050505050905090565b6000818152600260205260408120546001600160a01b0316610bbe5760405162461bcd60e51b815260206004820152602c60248201527f4552433732313a20617070726f76656420717565727920666f72206e6f6e657860448201526b34b9ba32b73a103a37b5b2b760a11b60648201526084015b60405180910390fd5b506000908152600460205260409020546001600160a01b031690565b6000610be582612106565b9050806001600160a01b0316836001600160a01b031603610c525760405162461bcd60e51b815260206004820152602160248201527f4552433732313a20617070726f76616c20746f2063757272656e74206f776e656044820152603960f91b6064820152608401610bb5565b336001600160a01b0382161480610c6e5750610c6e8133610994565b610ce05760405162461bcd60e51b815260206004820152603860248201527f4552433732313a20617070726f76652063616c6c6572206973206e6f74206f7760448201527f6e6572206e6f7220617070726f76656420666f7220616c6c00000000000000006064820152608401610bb5565b610cea83836131b0565b505050565b336000908152600f6020526040902054829060ff1680610d2857506000818152601160205260409020600201546001600160a01b031633145b610d445760405162461bcd60e51b8152600401610bb590614506565b60008381526011602090815260409091208351610d6992600690920191850190613e35565b5060405183906000805160206148dc83398151915290600090a2505050565b3360009081526010602052604081205460ff16610dd65760405162461bcd60e51b815260206004820152600c60248201526b2737ba10309036b4b73a32b960a11b6044820152606401610bb5565b60008381526011602052604090206015015483908390610100900460ff1680610e1b57506000828152601160205260409020600201546001600160a01b038281169116145b610e5d5760405162461bcd60e51b815260206004820152601360248201527250726f6a65637420697320696e61637469766560681b6044820152606401610bb5565b600085815260116020526040902060150154859085906301000000900460ff161580610ea557506000828152601160205260409020600201546001600160a01b038281169116145b610ee55760405162461bcd60e51b8152602060048201526011602482015270141c9bda9958dd081a5cc81c185d5cd959607a1b6044820152606401610bb5565b600087815260116020908152604080832060058101546001600160a01b038d16855260109091019092529091205488918a91610f2290600161321e565b1115610f855760405162461bcd60e51b815260206004820152602c60248201527f43616e6e6f74206d696e74206d6f7265207468616e206d617820746f6b656e7360448201526b20706572206164647265737360a01b6064820152608401610bb5565b600089815260116020526040902060048101546003909101548a9190610fac90600161321e565b111561100f5760405162461bcd60e51b815260206004820152602c60248201527f43616e6e6f74206d696e74206d6f7265207468616e2070726f6a656374206d6160448201526b7820697465726174696f6e7360a01b6064820152608401610bb5565b600061101b8b8d613231565b9c9b505050505050505050505050565b60008181526011602052604081206013018054606092919061104c906144d2565b80601f0160208091040260200160405190810160405280929190818152602001828054611078906144d2565b80156110c55780601f1061109a576101008083540402835291602001916110c5565b820191906000526020600020905b8154815290600101906020018083116110a857829003601f168201915b5050506000958652505060116020526040909320601201549293915050565b600081815260116020526040902060150154819062010000900460ff161561111e5760405162461bcd60e51b8152600401610bb59061453d565b336000908152600f6020526040902054829060ff168061115757506000818152601160205260409020600201546001600160a01b031633145b6111735760405162461bcd60e51b8152600401610bb590614506565b60008381526011602052604090206012015483906111d35760405162461bcd60e51b815260206004820152601c60248201527f736372697074206368756e6b7320737461636b20697320656d707479000000006044820152606401610bb5565b600084815260116020819052604082206012810154910191906111f89060019061457e565b815260200190815260200160002060006112129190613eb9565b60008481526011602052604090206012015461122f906001613468565b60008581526011602052604080822060120192909255905185916000805160206148dc83398151915291a250505050565b600083815260116020526040902060150154839062010000900460ff161561129a5760405162461bcd60e51b8152600401610bb59061453d565b336000908152600f6020526040902054849060ff16806112d357506000818152601160205260409020600201546001600160a01b031633145b6112ef5760405162461bcd60e51b8152600401610bb590614506565b6000858152601160205260409020601201548590859081106113495760405162461bcd60e51b81526020600482015260136024820152720d2dcecc2d8d2c840c6d0eadcd640d2dcc8caf606b1b6044820152606401610bb5565b60008781526011602081815260408084208a855290920181529120865161137292880190613e35565b5060405187906000805160206148dc83398151915290600090a250505050505050565b336000908152600f6020526040902054829060ff16806113ce57506000818152601160205260409020600201546001600160a01b031633145b6113ea5760405162461bcd60e51b8152600401610bb590614506565b81606481111561140c5760405162461bcd60e51b8152600401610bb590614595565b600084815260116020526040808220600f018590555185916000805160206148dc83398151915291a250505050565b336000908152600f6020526040902054829060ff168061147457506000818152601160205260409020600201546001600160a01b031633145b6114905760405162461bcd60e51b8152600401610bb590614506565b60008381526011602090815260409091208351610d6992600990920191850190613e35565b336000908152600f602052604090205460ff166114e45760405162461bcd60e51b8152600401610bb5906145ba565b600081815260116020526040808220601501805461ff001981166101009182900460ff16159091021790555182916000805160206148dc83398151915291a250565b611531335b82613474565b61154d5760405162461bcd60e51b8152600401610bb5906145e3565b610cea83838361356b565b600082815260026020526040812054819084906001600160a01b03166115b55760405162461bcd60e51b81526020600482015260126024820152712737b716b2bc34b9ba32b73a103a37b5b2b760711b6044820152606401610bb5565b600085815260126020908152604080832054835260119091529020600f81015460028201546001600160a01b0316811561160c578060646115f6848a614634565b6116009190614669565b95509550505050611617565b600080955095505050505b509250929050565b336000908152600f602052604090205460ff1661164e5760405162461bcd60e51b8152600401610bb5906145ba565b600081815260116020526040902060150154819062010000900460ff16156116885760405162461bcd60e51b8152600401610bb59061453d565b600082815260116020526040808220601501805462ff00001916620100001790555183916000805160206148dc83398151915291a25050565b60006116cc8361217d565b821061172e5760405162461bcd60e51b815260206004820152602b60248201527f455243373231456e756d657261626c653a206f776e657220696e646578206f7560448201526a74206f6620626f756e647360a81b6064820152608401610bb5565b506001600160a01b03919091166000908152600660209081526040808320938352929052205490565b600082815260116020818152604080842085855290920190529020805460609190611781906144d2565b80601f01602080910402602001604051908101604052809291908181526020018280546117ad906144d2565b80156117fa5780601f106117cf576101008083540402835291602001916117fa565b820191906000526020600020905b8154815290600101906020018083116117dd57829003601f168201915b5050505050905092915050565b610cea83838360405180602001604052806000815250612a75565b61182b3361152b565b6118905760405162461bcd60e51b815260206004820152603060248201527f4552433732314275726e61626c653a2063616c6c6572206973206e6f74206f7760448201526f1b995c881b9bdc88185c1c1c9bdd995960821b6064820152608401610bb5565b61189981613716565b50565b600c546001600160a01b031633146118e55760405162461bcd60e51b815260206004820152600c60248201526b4e6f74204d696e746f72696160a01b6044820152606401610bb5565b8060648111156119075760405162461bcd60e51b8152600401610bb590614595565b50600e55565b6000818152601160205260408120600901805460609283929091611930906144d2565b80601f016020809104026020016040519081016040528092919081815260200182805461195c906144d2565b80156119a95780601f1061197e576101008083540402835291602001916119a9565b820191906000526020600020905b81548152906001019060200180831161198c57829003601f168201915b5050506000878152601160205260409020600a018054939650926119cf925090506144d2565b80601f01602080910402602001604051908101604052809291908181526020018280546119fb906144d2565b8015611a485780601f10611a1d57610100808354040283529160200191611a48565b820191906000526020600020905b815481529060010190602001808311611a2b57829003601f168201915b505050600096875250506011602052604090942060150154929460ff90931692915050565b336000908152600f6020526040902054819060ff1680611aa657506000818152601160205260409020600201546001600160a01b031633145b611ac25760405162461bcd60e51b8152600401610bb590614506565b600082815260116020526040808220601501805463ff00000019811663010000009182900460ff16159091021790555183916000805160206148dc83398151915291a25050565b6000611b1460085490565b8210611b775760405162461bcd60e51b815260206004820152602c60248201527f455243373231456e756d657261626c653a20676c6f62616c20696e646578206f60448201526b7574206f6620626f756e647360a01b6064820152608401610bb5565b60088281548110611b8a57611b8a61467d565b90600052602060002001549050919050565b600c546001600160a01b03163314611be55760405162461bcd60e51b815260206004820152600c60248201526b4e6f74204d696e746f72696160a01b6044820152606401610bb5565b600c80546001600160a01b0319166001600160a01b0392909216919091179055565b606080600060608060606000806000601160008b81526020019081526020016000206000018054611c37906144d2565b80601f0160208091040260200160405190810160405280929190818152602001828054611c63906144d2565b8015611cb05780601f10611c8557610100808354040283529160200191611cb0565b820191906000526020600020905b815481529060010190602001808311611c9357829003601f168201915b50505060008d81526011602052604090206001018054939c5092611cd6925090506144d2565b80601f0160208091040260200160405190810160405280929190818152602001828054611d02906144d2565b8015611d4f5780601f10611d2457610100808354040283529160200191611d4f565b820191906000526020600020905b815481529060010190602001808311611d3257829003601f168201915b50505060008d8152601160205260409020600281015460069091018054949c506001600160a01b039091169a5092611d89925090506144d2565b80601f0160208091040260200160405190810160405280929190818152602001828054611db5906144d2565b8015611e025780601f10611dd757610100808354040283529160200191611e02565b820191906000526020600020905b815481529060010190602001808311611de557829003601f168201915b50505060008d8152601160205260409020600701805493995092611e28925090506144d2565b80601f0160208091040260200160405190810160405280929190818152602001828054611e54906144d2565b8015611ea15780601f10611e7657610100808354040283529160200191611ea1565b820191906000526020600020905b815481529060010190602001808311611e8457829003601f168201915b50505060008d8152601160205260409020600801805493985092611ec7925090506144d2565b80601f0160208091040260200160405190810160405280929190818152602001828054611ef3906144d2565b8015611f405780601f10611f1557610100808354040283529160200191611f40565b820191906000526020600020905b815481529060010190602001808311611f2357829003601f168201915b50505060009c8d52505060116020526040909a2060150154989a97999698959794969560ff6301000000820481169661010083048216965062010000909204169350915050565b600082815260116020526040902060150154829062010000900460ff1615611fc15760405162461bcd60e51b8152600401610bb59061453d565b336000908152600f6020526040902054839060ff1680611ffa57506000818152601160205260409020600201546001600160a01b031633145b6120165760405162461bcd60e51b8152600401610bb590614506565b82620186a081111561205b5760405162461bcd60e51b815260206004820152600e60248201526d04d6178206973203130302c3030360941b6044820152606401610bb5565b6000858152601160205260409020600301548490869082116120d45760405162461bcd60e51b815260206004820152602c60248201527f4d617820697465726174696f6e73206c6f776572207468616e2063757272656e60448201526b7420697465726174696f6e7360a01b6064820152608401610bb5565b6000878152601160205260408082206004018890555188916000805160206148dc83398151915291a250505050505050565b6000818152600260205260408120546001600160a01b031680610aa85760405162461bcd60e51b815260206004820152602960248201527f4552433732313a206f776e657220717565727920666f72206e6f6e657869737460448201526832b73a103a37b5b2b760b91b6064820152608401610bb5565b60006001600160a01b0382166121e85760405162461bcd60e51b815260206004820152602a60248201527f4552433732313a2062616c616e636520717565727920666f7220746865207a65604482015269726f206164647265737360b01b6064820152608401610bb5565b506001600160a01b031660009081526003602052604090205490565b600a546001600160a01b0316331461222e5760405162461bcd60e51b8152600401610bb590614693565b61223860006137bd565b565b600082815260116020526040902060150154829062010000900460ff16156122745760405162461bcd60e51b8152600401610bb59061453d565b336000908152600f6020526040902054839060ff16806122ad57506000818152601160205260409020600201546001600160a01b031633145b6122c95760405162461bcd60e51b8152600401610bb590614506565b6000848152601160208181526040808420601281015485529092018152912084516122f692860190613e35565b5060008481526011602052604090206012015461122f90600161321e565b600a546001600160a01b0316331461233e5760405162461bcd60e51b8152600401610bb590614693565b6001600160a01b03166000908152600f60205260409020805460ff19169055565b336000908152600f6020526040902054829060ff168061239857506000818152601160205260409020600201546001600160a01b031633145b6123b45760405162461bcd60e51b8152600401610bb590614506565b60008381526011602090815260409091208351610d6992600a90920191850190613e35565b600082815260116020526040902060150154829062010000900460ff16156124135760405162461bcd60e51b8152600401610bb59061453d565b336000908152600f6020526040902054839060ff168061244c57506000818152601160205260409020600201546001600160a01b031633145b6124685760405162461bcd60e51b8152600401610bb590614506565b6000848152601160209081526040909120845161248d92600190920191860190613e35565b5060405184906000805160206148dc83398151915290600090a250505050565b60008181526011602090815260409182902060140180548351818402810184019094528084526060939283018282801561250657602002820191906000526020600020905b8154815260200190600101908083116124f2575b50505050509050919050565b606060018054610abd906144d2565b600a546001600160a01b0316331461254b5760405162461bcd60e51b8152600401610bb590614693565b6001600160a01b03166000908152600f60205260409020805460ff19166001179055565b600a546001600160a01b031633146125995760405162461bcd60e51b8152600401610bb590614693565b8060648111156125bb5760405162461bcd60e51b8152600401610bb590614595565b50600d55565b600081815260116020526040902060150154819062010000900460ff16156125fb5760405162461bcd60e51b8152600401610bb59061453d565b336000908152600f6020526040902054829060ff168061263457506000818152601160205260409020600201546001600160a01b031633145b6126505760405162461bcd60e51b8152600401610bb590614506565b6000838152601160205260409020600301548390156126c65760405162461bcd60e51b815260206004820152602c60248201527f43616e6e6f742075706461746520616674657220746f6b656e7320686176652060448201526b3132b2b71036b4b73a32b21760a11b6064820152608401610bb5565b600084815260116020526040808220601501805460ff19811660ff909116151790555185916000805160206148dc83398151915291a250505050565b600082815260116020526040902060150154829062010000900460ff161561273c5760405162461bcd60e51b8152600401610bb59061453d565b336000908152600f6020526040902054839060ff168061277557506000818152601160205260409020600201546001600160a01b031633145b6127915760405162461bcd60e51b8152600401610bb590614506565b6000848152601160209081526040909120845161248d92600890920191860190613e35565b336001600160a01b0383160361280e5760405162461bcd60e51b815260206004820152601960248201527f4552433732313a20617070726f766520746f2063616c6c6572000000000000006044820152606401610bb5565b3360008181526005602090815260408083206001600160a01b03871680855290835292819020805460ff191686151590811790915590519081529192917f17307eab39ab6107e8899845ad3d59bd9653f200f220920489ca2b5937696c31910160405180910390a35050565b336000908152600f6020526040902054829060ff16806128b357506000818152601160205260409020600201546001600160a01b031633145b6128cf5760405162461bcd60e51b8152600401610bb590614506565b600083815260116020526040808220600b018490555184916000805160206148dc83398151915291a2505050565b336000908152600f6020526040902054839060ff168061293657506000818152601160205260409020600201546001600160a01b031633145b6129525760405162461bcd60e51b8152600401610bb590614506565b8160648111156129745760405162461bcd60e51b8152600401610bb590614595565b600085815260116020526040808220600d810180546001600160a01b0319166001600160a01b038916179055600e018590555186916000805160206148dc83398151915291a25050505050565b600082815260116020526040902060150154829062010000900460ff16156129fb5760405162461bcd60e51b8152600401610bb59061453d565b336000908152600f6020526040902054839060ff1680612a3457506000818152601160205260409020600201546001600160a01b031633145b612a505760405162461bcd60e51b8152600401610bb590614506565b6000848152601160209081526040909120845161248d92601390920191860190613e35565b612a7f3383613474565b612a9b5760405162461bcd60e51b8152600401610bb5906145e3565b612aa78484848461380f565b50505050565b600a546001600160a01b03163314612ad75760405162461bcd60e51b8152600401610bb590614693565b6001600160a01b03166000908152601060205260409020805460ff19169055565b606081612b1c816000908152600260205260409020546001600160a01b0316151590565b612b5d5760405162461bcd60e51b81526020600482015260126024820152712737b716b2bc34b9ba32b73a103a37b5b2b760711b6044820152606401610bb5565b600083815260126020908152604080832054835260119091529020600901612b8484613842565b604051602001612b959291906146e4565b60405160208183030381529060405291505b50919050565b336000908152600f602052604090205460ff16612bdc5760405162461bcd60e51b8152600401610bb5906145ba565b60135460008181526011602090815260409091208651612bfe92880190613e35565b506000818152601160205260409020600b81018590556002810180546001600160a01b0319166001600160a01b038916179055600c8101849055601581018054620186a06004840155600a600590930192909255630100000063ff0000ff1990921684151563ff000000191617919091179055601354612c7f90600161321e565b601381905550856001600160a01b0316817f4191936f277b347d337bbbd13f4dcd10eca735472524d2fec43d17b7f3013f6c87878787604051612cc5949392919061478a565b60405180910390a3505050505050565b600a546001600160a01b03163314612cff5760405162461bcd60e51b8152600401610bb590614693565b6001600160a01b03166000908152601060205260409020805460ff19166001179055565b336000908152600f6020526040902054829060ff1680612d5c57506000818152601160205260409020600201546001600160a01b031633145b612d785760405162461bcd60e51b8152600401610bb590614506565b60008381526011602090815260409091208351610d6992600790920191850190613e35565b336000908152600f602052604090205460ff16612dcc5760405162461bcd60e51b8152600401610bb5906145ba565b600082815260116020526040902060150154829062010000900460ff1615612e065760405162461bcd60e51b8152600401610bb59061453d565b816064811115612e285760405162461bcd60e51b8152600401610bb590614595565b600084815260116020526040808220600c018590555185916000805160206148dc83398151915291a250505050565b600082815260116020526040902060150154829062010000900460ff1615612e915760405162461bcd60e51b8152600401610bb59061453d565b336000908152600f6020526040902054839060ff1680612eca57506000818152601160205260409020600201546001600160a01b031633145b612ee65760405162461bcd60e51b8152600401610bb590614506565b6000848152601160209081526040909120845161248d92860190613e35565b336000908152600f602052604090205460ff16612f345760405162461bcd60e51b8152600401610bb5906145ba565b600b80546001600160a01b0319166001600160a01b0392909216919091179055565b600a546001600160a01b03163314612f805760405162461bcd60e51b8152600401610bb590614693565b6001600160a01b038116612fe55760405162461bcd60e51b815260206004820152602660248201527f4f776e61626c653a206e6577206f776e657220697320746865207a65726f206160448201526564647265737360d01b6064820152608401610bb5565b611899816137bd565b600082815260116020526040902060150154829062010000900460ff16156130285760405162461bcd60e51b8152600401610bb59061453d565b336000908152600f6020526040902054839060ff168061306157506000818152601160205260409020600201546001600160a01b031633145b61307d5760405162461bcd60e51b8152600401610bb590614506565b82620186a08111156130c25760405162461bcd60e51b815260206004820152600e60248201526d04d6178206973203130302c3030360941b6044820152606401610bb5565b6000858152601160205260408082206005018690555186916000805160206148dc83398151915291a25050505050565b336000908152600f6020526040902054829060ff168061312b57506000818152601160205260409020600201546001600160a01b031633145b6131475760405162461bcd60e51b8152600401610bb590614506565b60008381526011602052604080822060020180546001600160a01b0319166001600160a01b0386161790555184916000805160206148dc83398151915291a2505050565b60006001600160e01b0319821663780e9d6360e01b1480610aa85750610aa882613943565b600081815260046020526040902080546001600160a01b0319166001600160a01b03841690811790915581906131e582612106565b6001600160a01b03167f8c5be1e5ebec7d5bd14f71427d1e84f3dd0314c0f7b2291e5b200ac8c7c3b92560405160405180910390a45050565b600061322a82846147bb565b9392505050565b6000828152601160205260408120600301548190613252620186a086614634565b61325c91906147bb565b60008581526011602052604090206003015490915061327c90600161321e565b600085815260116020908152604080832060030193909355600b548351632096525560e01b8152935192936001600160a01b03909116926320965255926004808401939192918290030181865afa1580156132db573d6000803e3d6000fd5b505050506040513d601f19601f820116820180604052508101906132ff91906147d3565b61330a60014361457e565b61331560014361457e565b600088815260116020908152604091829020600301549151613370959493409291339101948552602085019390935260408401919091526060808401919091521b6bffffffffffffffffffffffff1916608082015260940190565b60408051601f1981840301815291815281516020928301206000858152601284528281206001808201849055908a9055898252601185528382206001600160a01b038a16835260100190945291909120549092506133cd9161321e565b60008681526011602081815260408084206001600160a01b038a16855260108101835290842094909455908152601490920180546001810182559082529190200182905561341b8483613993565b8482856001600160a01b03167fcf6fbb9dcea7d07263ab4f5c3a92f53af33dffc421d9d121e1c74b307e68189d8460405161345891815260200190565b60405180910390a4509392505050565b600061322a828461457e565b6000818152600260205260408120546001600160a01b03166134ed5760405162461bcd60e51b815260206004820152602c60248201527f4552433732313a206f70657261746f7220717565727920666f72206e6f6e657860448201526b34b9ba32b73a103a37b5b2b760a11b6064820152608401610bb5565b60006134f883612106565b9050806001600160a01b0316846001600160a01b031614806135335750836001600160a01b031661352884610b40565b6001600160a01b0316145b8061356357506001600160a01b0380821660009081526005602090815260408083209388168352929052205460ff165b949350505050565b826001600160a01b031661357e82612106565b6001600160a01b0316146135e65760405162461bcd60e51b815260206004820152602960248201527f4552433732313a207472616e73666572206f6620746f6b656e2074686174206960448201526839903737ba1037bbb760b91b6064820152608401610bb5565b6001600160a01b0382166136485760405162461bcd60e51b8152602060048201526024808201527f4552433732313a207472616e7366657220746f20746865207a65726f206164646044820152637265737360e01b6064820152608401610bb5565b613653838383613ae1565b61365e6000826131b0565b6001600160a01b038316600090815260036020526040812080546001929061368790849061457e565b90915550506001600160a01b03821660009081526003602052604081208054600192906136b59084906147bb565b909155505060008181526002602052604080822080546001600160a01b0319166001600160a01b0386811691821790925591518493918716917fddf252ad1be2c89b69c2b068fc378daa952ba7f163c4a11628f55a4df523b3ef91a4505050565b600061372182612106565b905061372f81600084613ae1565b61373a6000836131b0565b6001600160a01b038116600090815260036020526040812080546001929061376390849061457e565b909155505060008281526002602052604080822080546001600160a01b0319169055518391906001600160a01b038416907fddf252ad1be2c89b69c2b068fc378daa952ba7f163c4a11628f55a4df523b3ef908390a45050565b600a80546001600160a01b038381166001600160a01b0319831681179093556040519116919082907f8be0079c531659141344cd1fd0a4f28419497f9722a3daafe3b4186f6b6457e090600090a35050565b61381a84848461356b565b61382684848484613aec565b612aa75760405162461bcd60e51b8152600401610bb5906147ec565b6060816000036138695750506040805180820190915260018152600360fc1b602082015290565b8160005b8115613893578061387d8161483e565b915061388c9050600a83614669565b915061386d565b60008167ffffffffffffffff8111156138ae576138ae614001565b6040519080825280601f01601f1916602001820160405280156138d8576020820181803683370190505b5090505b8415613563576138ed60018361457e565b91506138fa600a86614857565b6139059060306147bb565b60f81b81838151811061391a5761391a61467d565b60200101906001600160f81b031916908160001a90535061393c600a86614669565b94506138dc565b60006001600160e01b031982166380ac58cd60e01b148061397457506001600160e01b03198216635b5e139f60e01b145b80610aa857506301ffc9a760e01b6001600160e01b0319831614610aa8565b6001600160a01b0382166139e95760405162461bcd60e51b815260206004820181905260248201527f4552433732313a206d696e7420746f20746865207a65726f20616464726573736044820152606401610bb5565b6000818152600260205260409020546001600160a01b031615613a4e5760405162461bcd60e51b815260206004820152601c60248201527f4552433732313a20746f6b656e20616c7265616479206d696e746564000000006044820152606401610bb5565b613a5a60008383613ae1565b6001600160a01b0382166000908152600360205260408120805460019290613a839084906147bb565b909155505060008181526002602052604080822080546001600160a01b0319166001600160a01b03861690811790915590518392907fddf252ad1be2c89b69c2b068fc378daa952ba7f163c4a11628f55a4df523b3ef908290a45050565b610cea838383613bed565b60006001600160a01b0384163b15613be257604051630a85bd0160e11b81526001600160a01b0385169063150b7a0290613b3090339089908890889060040161486b565b6020604051808303816000875af1925050508015613b6b575060408051601f3d908101601f19168201909252613b68918101906148a8565b60015b613bc8573d808015613b99576040519150601f19603f3d011682016040523d82523d6000602084013e613b9e565b606091505b508051600003613bc05760405162461bcd60e51b8152600401610bb5906147ec565b805181602001fd5b6001600160e01b031916630a85bd0160e11b149050613563565b506001949350505050565b6001600160a01b038316613c4857613c4381600880546000838152600960205260408120829055600182018355919091527ff3f7a9fe364faab93b216da50a3214154f22a0a2b415b23a84c8169e8b636ee30155565b613c6b565b816001600160a01b0316836001600160a01b031614613c6b57613c6b8382613ca5565b6001600160a01b038216613c8257610cea81613d42565b826001600160a01b0316826001600160a01b031614610cea57610cea8282613df1565b60006001613cb28461217d565b613cbc919061457e565b600083815260076020526040902054909150808214613d0f576001600160a01b03841660009081526006602090815260408083208584528252808320548484528184208190558352600790915290208190555b5060009182526007602090815260408084208490556001600160a01b039094168352600681528383209183525290812055565b600854600090613d549060019061457e565b60008381526009602052604081205460088054939450909284908110613d7c57613d7c61467d565b906000526020600020015490508060088381548110613d9d57613d9d61467d565b6000918252602080832090910192909255828152600990915260408082208490558582528120556008805480613dd557613dd56148c5565b6001900381819060005260206000200160009055905550505050565b6000613dfc8361217d565b6001600160a01b039093166000908152600660209081526040808320868452825280832085905593825260079052919091209190915550565b828054613e41906144d2565b90600052602060002090601f016020900481019282613e635760008555613ea9565b82601f10613e7c57805160ff1916838001178555613ea9565b82800160010185558215613ea9579182015b82811115613ea9578251825591602001919060010190613e8e565b50613eb5929150613eef565b5090565b508054613ec5906144d2565b6000825580601f10613ed5575050565b601f01602090049060005260206000209081019061189991905b5b80821115613eb55760008155600101613ef0565b6001600160e01b03198116811461189957600080fd5b600060208284031215613f2c57600080fd5b813561322a81613f04565b60005b83811015613f52578181015183820152602001613f3a565b83811115612aa75750506000910152565b60008151808452613f7b816020860160208601613f37565b601f01601f19169290920160200192915050565b60208152600061322a6020830184613f63565b600060208284031215613fb457600080fd5b5035919050565b80356001600160a01b0381168114613fd257600080fd5b919050565b60008060408385031215613fea57600080fd5b613ff383613fbb565b946020939093013593505050565b634e487b7160e01b600052604160045260246000fd5b600067ffffffffffffffff8084111561403257614032614001565b604051601f8501601f19908116603f0116810190828211818310171561405a5761405a614001565b8160405280935085815286868601111561407357600080fd5b858560208301376000602087830101525050509392505050565b600082601f83011261409e57600080fd5b61322a83833560208501614017565b600080604083850312156140c057600080fd5b82359150602083013567ffffffffffffffff8111156140de57600080fd5b6140ea8582860161408d565b9150509250929050565b60008060006060848603121561410957600080fd5b61411284613fbb565b92506020840135915061412760408501613fbb565b90509250925092565b6040815260006141436040830185613f63565b90508260208301529392505050565b60008060006060848603121561416757600080fd5b8335925060208401359150604084013567ffffffffffffffff81111561418c57600080fd5b6141988682870161408d565b9150509250925092565b6000602082840312156141b457600080fd5b61322a82613fbb565b600080604083850312156141d057600080fd5b50508035926020909101359150565b6000806000606084860312156141f457600080fd5b6141fd84613fbb565b925061420b60208501613fbb565b9150604084013590509250925092565b60608152600061422e6060830186613f63565b82810360208401526142408186613f63565b9150508215156040830152949350505050565b60006101208083526142678184018d613f63565b9050828103602084015261427b818c613f63565b6001600160a01b038b1660408501528381036060850152905061429e818a613f63565b905082810360808401526142b28189613f63565b905082810360a08401526142c68188613f63565b95151560c0840152505091151560e08301521515610100909101529695505050505050565b6020808252825182820181905260009190848201906040850190845b8181101561432357835183529284019291840191600101614307565b50909695505050505050565b80358015158114613fd257600080fd5b6000806040838503121561435257600080fd5b61435b83613fbb565b91506143696020840161432f565b90509250929050565b60008060006060848603121561438757600080fd5b8335925061420b60208501613fbb565b600080600080608085870312156143ad57600080fd5b6143b685613fbb565b93506143c460208601613fbb565b925060408501359150606085013567ffffffffffffffff8111156143e757600080fd5b8501601f810187136143f857600080fd5b61440787823560208401614017565b91505092959194509250565b600080600080600060a0868803121561442b57600080fd5b61443486613fbb565b9450602086013567ffffffffffffffff81111561445057600080fd5b61445c8882890161408d565b94505060408601359250606086013591506144796080870161432f565b90509295509295909350565b6000806040838503121561449857600080fd5b6144a183613fbb565b915061436960208401613fbb565b600080604083850312156144c257600080fd5b8235915061436960208401613fbb565b600181811c908216806144e657607f821691505b602082108103612ba757634e487b7160e01b600052602260045260246000fd5b60208082526019908201527f4e6f7420617274697374206f7220616e206f70657261746f7200000000000000604082015260600190565b602080825260119082015270141c9bda9958dd081a5cc81b1bd8dad959607a1b604082015260600190565b634e487b7160e01b600052601160045260246000fd5b60008282101561459057614590614568565b500390565b6020808252600b908201526a4d6178206973203130302560a81b604082015260600190565b6020808252600f908201526e2737ba1030b71037b832b930ba37b960891b604082015260600190565b60208082526031908201527f4552433732313a207472616e736665722063616c6c6572206973206e6f74206f6040820152701ddb995c881b9bdc88185c1c1c9bdd9959607a1b606082015260800190565b600081600019048311821515161561464e5761464e614568565b500290565b634e487b7160e01b600052601260045260246000fd5b60008261467857614678614653565b500490565b634e487b7160e01b600052603260045260246000fd5b6020808252818101527f4f776e61626c653a2063616c6c6572206973206e6f7420746865206f776e6572604082015260600190565b600081516146da818560208601613f37565b9290920192915050565b600080845481600182811c91508083168061470057607f831692505b6020808410820361471f57634e487b7160e01b86526022600452602486fd5b818015614733576001811461474457614771565b60ff19861689528489019650614771565b60008b81526020902060005b868110156147695781548b820152908501908301614750565b505084890196505b50505050505061478181856146c8565b95945050505050565b60808152600061479d6080830187613f63565b60208301959095525060408101929092521515606090910152919050565b600082198211156147ce576147ce614568565b500190565b6000602082840312156147e557600080fd5b5051919050565b60208082526032908201527f4552433732313a207472616e7366657220746f206e6f6e20455243373231526560408201527131b2b4bb32b91034b6b83632b6b2b73a32b960711b606082015260800190565b60006001820161485057614850614568565b5060010190565b60008261486657614866614653565b500690565b6001600160a01b038581168252841660208201526040810183905260806060820181905260009061489e90830184613f63565b9695505050505050565b6000602082840312156148ba57600080fd5b815161322a81613f04565b634e487b7160e01b600052603160045260246000fdfeb952ccef344277db73b4d9d774a95805b92c8f515cdd0ac906546eea552c7537a26469706673582212205bac295355eb0f76bafce53909583354db565fede8a760abf1adccbe0524c34b64736f6c634300080d0033",
  "immutableReferences": {},
  "source": "// SPDX-License-Identifier: UNLICENSED\npragma solidity ^0.8.11;\n\nimport \"@openzeppelin/contracts/token/ERC721/extensions/ERC721Enumerable.sol\";\nimport \"@openzeppelin/contracts/token/ERC721/extensions/ERC721Burnable.sol\";\nimport \"@openzeppelin/contracts/utils/Strings.sol\";\nimport \"@openzeppelin/contracts/token/ERC721/ERC721.sol\";\nimport \"@openzeppelin/contracts/access/Ownable.sol\";\nimport \"@openzeppelin/contracts/utils/math/SafeMath.sol\";\nimport \"@openzeppelin/contracts/utils/Counters.sol\";\nimport \"./lib/IERC2981.sol\";\nimport \"./lib/IMintoriaRandomizer.sol\";\n\ncontract MintoriaStore is\n  IERC2981,\n  ERC165,\n  ERC721,\n  ERC721Enumerable,\n  ERC721Burnable,\n  Ownable\n{\n  using SafeMath for uint256;\n  using Counters for Counters.Counter;\n  bytes4 private constant _INTERFACE_ID_ERC2981 = 0x2a55205a;\n\n  event CreateProject(\n    uint256 indexed _projectId,\n    address indexed _artistAddress,\n    string _projectName,\n    uint256 _pricePerTokenInWei,\n    uint256 _projectFeePercentage,\n    bool _useStorage\n  );\n\n  event UpdateProject(uint256 indexed _projectId);\n\n  event Mint(\n    address indexed _to,\n    uint256 indexed _tokenId,\n    uint256 indexed _projectId,\n    bytes32 _hash\n  );\n\n  struct Project {\n    string name;\n    string artist;\n    address artistAddress;\n    uint256 iterations;\n    uint256 maxIterations;\n    uint256 maxTokensPerAddress;\n    string description;\n    string website;\n    string license;\n    string baseURI;\n    string baseIpfsURI;\n    uint256 pricePerTokenInWei;\n    uint256 feePercentage;\n    address collaboratorAddress;\n    uint256 collaboratorPercentage;\n    uint256 royaltyFeePercentage;\n    mapping(address => uint256) addressToTokenCount;\n    mapping(uint256 => string) scriptChunks;\n    uint256 scriptChunksCount;\n    string scriptMetadata;\n    uint256[] tokenIds;\n    bool useStorage;\n    bool active;\n    bool locked;\n    bool paused;\n  }\n\n  struct Token {\n    uint256 projectId;\n    bytes32 hash;\n  }\n\n  IMintoriaRandomizer public mintoriaRandomizerContract;\n\n  address public mintoriaAddress;\n\n  uint256 public adminFeeSplitPercentage = 80;\n  uint256 public mintoriaFeeSplitPercentage = 20;\n\n  mapping(address => bool) public operators;\n  mapping(address => bool) public minters;\n\n  mapping(uint256 => Project) projects;\n  mapping(uint256 => Token) tokens;\n\n  uint256 public nextProjectId = 1;\n  uint256 constant MAX_TOKENS_PER_PROJECT = 100_000;\n  uint256 constant MAX_TOKENS_PER_ADDRESS = 10;\n\n  modifier onlyMintoria() {\n    require(msg.sender == mintoriaAddress, \"Not Mintoria\");\n    _;\n  }\n\n  modifier onlyOperators() {\n    require(operators[msg.sender], \"Not an operator\");\n    _;\n  }\n\n  modifier onlyMinters() {\n    require(minters[msg.sender], \"Not a minter\");\n    _;\n  }\n\n  modifier onlyExistingToken(uint256 _tokenId) {\n    require(_exists(_tokenId), \"Non-existent token\");\n    _;\n  }\n\n  modifier onlyUnlockedProject(uint256 _projectId) {\n    require(!projects[_projectId].locked, \"Project is locked\");\n    _;\n  }\n\n  modifier onlyOperatorsOrArtist(uint256 _projectId) {\n    require(\n      operators[msg.sender] || msg.sender == projects[_projectId].artistAddress,\n      \"Not artist or an operator\"\n    );\n    _;\n  }\n\n  modifier onlyValidFeePercentage(uint256 _percentage) {\n    require(_percentage <= 100, \"Max is 100%\");\n    _;\n  }\n\n  modifier onlyValidIterationCount(uint256 _iterations) {\n    require(_iterations <= MAX_TOKENS_PER_PROJECT, \"Max is 100,000\");\n    _;\n  }\n\n  modifier onlyHigherIterationCount(uint256 _iterations, uint256 _projectId) {\n    require(\n      _iterations > projects[_projectId].iterations,\n      \"Max iterations lower than current iterations\"\n    );\n    _;\n  }\n\n  modifier onlyValidProjectFeePercentage(uint256 _feePercentage) {\n    require(_feePercentage <= 100, \"Max is 100%\");\n    _;\n  }\n\n  modifier onlyNoTokensMinted(uint256 _projectId) {\n    require(\n      projects[_projectId].iterations == 0,\n      \"Cannot update after tokens have been minted.\"\n    );\n    _;\n  }\n\n  modifier onlyActiveProjectOrArtist(uint256 _projectId, address _by) {\n    require(\n      projects[_projectId].active || _by == projects[_projectId].artistAddress,\n      \"Project is inactive\"\n    );\n    _;\n  }\n\n  modifier onlyUnpausedProjectOrArtist(uint256 _projectId, address _by) {\n    require(\n      !projects[_projectId].paused || _by == projects[_projectId].artistAddress,\n      \"Project is paused\"\n    );\n    _;\n  }\n\n  modifier onlyMaxTokensPerAddress(uint256 _projectId, address _to) {\n    require(\n      projects[_projectId].addressToTokenCount[_to].add(1) <=\n        projects[_projectId].maxTokensPerAddress,\n      \"Cannot mint more than max tokens per address\"\n    );\n    _;\n  }\n\n  modifier onlyMaxIterations(uint256 _projectId) {\n    require(\n      projects[_projectId].iterations.add(1) <=\n        projects[_projectId].maxIterations,\n      \"Cannot mint more than project max iterations\"\n    );\n    _;\n  }\n\n  modifier onlyValidChunkIndex(uint256 _projectId, uint256 _index) {\n    require(\n      _index < projects[_projectId].scriptChunksCount,\n      \"invalid chunk index\"\n    );\n    _;\n  }\n\n  modifier onlyProjectsWithScriptChunks(uint256 _projectId) {\n    require(\n      projects[_projectId].scriptChunksCount > 0,\n      \"script chunks stack is empty\"\n    );\n    _;\n  }\n\n  constructor(\n    string memory _tokenName,\n    string memory _tokenSymbol,\n    address _mintoriaAddress,\n    address _mintoriaRandomizerContractAddress\n  ) ERC721(_tokenName, _tokenSymbol) {\n    mintoriaAddress = _mintoriaAddress;\n    mintoriaRandomizerContract = IMintoriaRandomizer(\n      _mintoriaRandomizerContractAddress\n    );\n    operators[msg.sender] = true;\n    minters[msg.sender] = true;\n  }\n\n  function setMintoriaAddress(address _mintoriaAddress) public onlyMintoria {\n    mintoriaAddress = _mintoriaAddress;\n  }\n\n  function setMintoriaFeeSplitPercentage(uint256 _mintoriaFeeSplitPercentage)\n    public\n    onlyMintoria\n    onlyValidFeePercentage(_mintoriaFeeSplitPercentage)\n  {\n    mintoriaFeeSplitPercentage = _mintoriaFeeSplitPercentage;\n  }\n\n  function setAdminFeeSplitPercentage(uint256 _adminFeeSplitPercentage)\n    public\n    onlyOwner\n    onlyValidFeePercentage(_adminFeeSplitPercentage)\n  {\n    adminFeeSplitPercentage = _adminFeeSplitPercentage;\n  }\n\n  function setRandomizerAddress(address _mintoriaRandomizerContract)\n    public\n    onlyOperators\n  {\n    mintoriaRandomizerContract = IMintoriaRandomizer(\n      _mintoriaRandomizerContract\n    );\n  }\n\n  function addMintRights(address _address) public onlyOwner {\n    minters[_address] = true;\n  }\n\n  function removeMintRights(address _address) public onlyOwner {\n    minters[_address] = false;\n  }\n\n  function addOperatingRights(address _address) public onlyOwner {\n    operators[_address] = true;\n  }\n\n  function removeOperatingRights(address _address) public onlyOwner {\n    operators[_address] = false;\n  }\n\n  function createProject(\n    address _artistAddress,\n    string memory _projectName,\n    uint256 _pricePerTokenInWei,\n    uint256 _feePercentage,\n    bool _useStorage\n  ) public onlyOperators {\n    uint256 projectId = nextProjectId;\n    projects[projectId].name = _projectName;\n    projects[projectId].pricePerTokenInWei = _pricePerTokenInWei;\n    projects[projectId].artistAddress = _artistAddress;\n    projects[projectId].feePercentage = _feePercentage;\n    projects[projectId].useStorage = _useStorage;\n    projects[projectId].maxIterations = MAX_TOKENS_PER_PROJECT;\n    projects[projectId].maxTokensPerAddress = MAX_TOKENS_PER_ADDRESS;\n    projects[projectId].paused = true;\n    nextProjectId = nextProjectId.add(1);\n\n    emit CreateProject(\n      projectId,\n      _artistAddress,\n      _projectName,\n      _pricePerTokenInWei,\n      _feePercentage,\n      _useStorage\n    );\n  }\n\n  function getProjectDetails(uint256 _projectId)\n    public\n    view\n    returns (\n      string memory projectName,\n      string memory artist,\n      address artistAddress,\n      string memory description,\n      string memory website,\n      string memory license,\n      bool paused,\n      bool active,\n      bool locked\n    )\n  {\n    projectName = projects[_projectId].name;\n    artist = projects[_projectId].artist;\n    artistAddress = projects[_projectId].artistAddress;\n    description = projects[_projectId].description;\n    website = projects[_projectId].website;\n    license = projects[_projectId].license;\n    paused = projects[_projectId].paused;\n    active = projects[_projectId].active;\n    locked = projects[_projectId].locked;\n  }\n\n  function getProjectTokenDetails(uint256 _projectId)\n    public\n    view\n    returns (\n      uint256 feePercentage,\n      uint256 pricePerTokenInWei,\n      uint256 iterations,\n      uint256 maxIterations,\n      uint256 maxTokensPerAddress\n    )\n  {\n    feePercentage = projects[_projectId].feePercentage;\n    pricePerTokenInWei = projects[_projectId].pricePerTokenInWei;\n    iterations = projects[_projectId].iterations;\n    maxIterations = projects[_projectId].maxIterations;\n    maxTokensPerAddress = projects[_projectId].maxTokensPerAddress;\n  }\n\n  function getProjectURIDetails(uint256 _projectId)\n    public\n    view\n    returns (\n      string memory baseURI,\n      string memory baseIpfsURI,\n      bool useStorage\n    )\n  {\n    baseURI = projects[_projectId].baseURI;\n    baseIpfsURI = projects[_projectId].baseIpfsURI;\n    useStorage = projects[_projectId].useStorage;\n  }\n\n  function getProjectExtraPaymentDetails(uint256 _projectId)\n    public\n    view\n    returns (\n      address collaboratorAddress,\n      uint256 collaboratorPercentage,\n      uint256 royaltyFeePercentage\n    )\n  {\n    collaboratorAddress = projects[_projectId].collaboratorAddress;\n    collaboratorPercentage = projects[_projectId].collaboratorPercentage;\n    royaltyFeePercentage = projects[_projectId].royaltyFeePercentage;\n  }\n\n  function getProjectScriptDetails(uint256 _projectId)\n    public\n    view\n    returns (string memory scriptMetadata, uint256 scriptChunksCount)\n  {\n    scriptMetadata = projects[_projectId].scriptMetadata;\n    scriptChunksCount = projects[_projectId].scriptChunksCount;\n  }\n\n  function getProjectScriptChunkByIndex(uint256 _projectId, uint256 _index)\n    public\n    view\n    returns (string memory)\n  {\n    return projects[_projectId].scriptChunks[_index];\n  }\n\n  function getProjectTokens(uint256 _projectId)\n    public\n    view\n    returns (uint256[] memory)\n  {\n    return projects[_projectId].tokenIds;\n  }\n\n  function setProjectName(uint256 _projectId, string memory _name)\n    public\n    onlyUnlockedProject(_projectId)\n    onlyOperatorsOrArtist(_projectId)\n  {\n    projects[_projectId].name = _name;\n\n    emit UpdateProject(_projectId);\n  }\n\n  function setProjectArtistName(uint256 _projectId, string memory _artistName)\n    public\n    onlyUnlockedProject(_projectId)\n    onlyOperatorsOrArtist(_projectId)\n  {\n    projects[_projectId].artist = _artistName;\n\n    emit UpdateProject(_projectId);\n  }\n\n  function setProjectArtistAddress(uint256 _projectId, address _artistAddress)\n    public\n    onlyOperatorsOrArtist(_projectId)\n  {\n    projects[_projectId].artistAddress = _artistAddress;\n\n    emit UpdateProject(_projectId);\n  }\n\n  function setProjectDescription(uint256 _projectId, string memory _description)\n    public\n    onlyOperatorsOrArtist(_projectId)\n  {\n    projects[_projectId].description = _description;\n\n    emit UpdateProject(_projectId);\n  }\n\n  function setProjectWebsite(uint256 _projectId, string memory _website)\n    public\n    onlyOperatorsOrArtist(_projectId)\n  {\n    projects[_projectId].website = _website;\n\n    emit UpdateProject(_projectId);\n  }\n\n  function setProjectLicense(uint256 _projectId, string memory _license)\n    public\n    onlyUnlockedProject(_projectId)\n    onlyOperatorsOrArtist(_projectId)\n  {\n    projects[_projectId].license = _license;\n\n    emit UpdateProject(_projectId);\n  }\n\n  function setProjectPricePerTokenInWei(\n    uint256 _projectId,\n    uint256 _pricePerTokenInWei\n  ) public onlyOperatorsOrArtist(_projectId) {\n    projects[_projectId].pricePerTokenInWei = _pricePerTokenInWei;\n\n    emit UpdateProject(_projectId);\n  }\n\n  function setProjectMaxIterations(uint256 _projectId, uint256 _maxIterations)\n    public\n    onlyUnlockedProject(_projectId)\n    onlyOperatorsOrArtist(_projectId)\n    onlyValidIterationCount(_maxIterations)\n    onlyHigherIterationCount(_maxIterations, _projectId)\n  {\n    projects[_projectId].maxIterations = _maxIterations;\n\n    emit UpdateProject(_projectId);\n  }\n\n  function setProjectMaxTokensPerAddress(\n    uint256 _projectId,\n    uint256 _maxTokensPerAddress\n  )\n    public\n    onlyUnlockedProject(_projectId)\n    onlyOperatorsOrArtist(_projectId)\n    onlyValidIterationCount(_maxTokensPerAddress)\n  {\n    projects[_projectId].maxTokensPerAddress = _maxTokensPerAddress;\n\n    emit UpdateProject(_projectId);\n  }\n\n  function setProjectFeePercentage(uint256 _projectId, uint256 _feePercentage)\n    public\n    onlyOperators\n    onlyUnlockedProject(_projectId)\n    onlyValidProjectFeePercentage(_feePercentage)\n  {\n    projects[_projectId].feePercentage = _feePercentage;\n\n    emit UpdateProject(_projectId);\n  }\n\n  function setProjectBaseURI(uint256 _projectId, string memory _baseURI)\n    public\n    onlyOperatorsOrArtist(_projectId)\n  {\n    projects[_projectId].baseURI = _baseURI;\n\n    emit UpdateProject(_projectId);\n  }\n\n  function setProjectBaseIpfsURI(uint256 _projectId, string memory _baseIpfsURI)\n    public\n    onlyOperatorsOrArtist(_projectId)\n  {\n    projects[_projectId].baseIpfsURI = _baseIpfsURI;\n\n    emit UpdateProject(_projectId);\n  }\n\n  function setProjectCollaborator(\n    uint256 _projectId,\n    address _collaboratorAddress,\n    uint256 _collaboratorPercentage\n  )\n    public\n    onlyOperatorsOrArtist(_projectId)\n    onlyValidFeePercentage(_collaboratorPercentage)\n  {\n    projects[_projectId].collaboratorAddress = _collaboratorAddress;\n    projects[_projectId].collaboratorPercentage = _collaboratorPercentage;\n\n    emit UpdateProject(_projectId);\n  }\n\n  function setProjectRoyaltyFeePercentage(\n    uint256 _projectId,\n    uint256 _royaltyFeePercentage\n  )\n    public\n    onlyOperatorsOrArtist(_projectId)\n    onlyValidFeePercentage(_royaltyFeePercentage)\n  {\n    projects[_projectId].royaltyFeePercentage = _royaltyFeePercentage;\n\n    emit UpdateProject(_projectId);\n  }\n\n  function addProjectScriptChunk(uint256 _projectId, string memory _scriptChunk)\n    public\n    onlyUnlockedProject(_projectId)\n    onlyOperatorsOrArtist(_projectId)\n  {\n    projects[_projectId].scriptChunks[\n      projects[_projectId].scriptChunksCount\n    ] = _scriptChunk;\n    projects[_projectId].scriptChunksCount = projects[_projectId]\n      .scriptChunksCount\n      .add(1);\n\n    emit UpdateProject(_projectId);\n  }\n\n  function setProjectScriptChunkByIndex(\n    uint256 _projectId,\n    uint256 _index,\n    string memory _scriptChunk\n  )\n    public\n    onlyUnlockedProject(_projectId)\n    onlyOperatorsOrArtist(_projectId)\n    onlyValidChunkIndex(_projectId, _index)\n  {\n    projects[_projectId].scriptChunks[_index] = _scriptChunk;\n\n    emit UpdateProject(_projectId);\n  }\n\n  function removeProjectLastScriptChunk(uint256 _projectId)\n    public\n    onlyUnlockedProject(_projectId)\n    onlyOperatorsOrArtist(_projectId)\n    onlyProjectsWithScriptChunks(_projectId)\n  {\n    delete projects[_projectId].scriptChunks[\n      projects[_projectId].scriptChunksCount - 1\n    ];\n    projects[_projectId].scriptChunksCount = projects[_projectId]\n      .scriptChunksCount\n      .sub(1);\n\n    emit UpdateProject(_projectId);\n  }\n\n  function setProjectScriptMetadata(\n    uint256 _projectId,\n    string memory _scriptMetadata\n  ) public onlyUnlockedProject(_projectId) onlyOperatorsOrArtist(_projectId) {\n    projects[_projectId].scriptMetadata = _scriptMetadata;\n\n    emit UpdateProject(_projectId);\n  }\n\n  function toggleActiveProject(uint256 _projectId) public onlyOperators {\n    projects[_projectId].active = !projects[_projectId].active;\n\n    emit UpdateProject(_projectId);\n  }\n\n  function togglePausedProject(uint256 _projectId)\n    public\n    onlyOperatorsOrArtist(_projectId)\n  {\n    projects[_projectId].paused = !projects[_projectId].paused;\n\n    emit UpdateProject(_projectId);\n  }\n\n  function toggleLockedProject(uint256 _projectId)\n    public\n    onlyOperators\n    onlyUnlockedProject(_projectId)\n  {\n    projects[_projectId].locked = true;\n\n    emit UpdateProject(_projectId);\n  }\n\n  function toggleProjectStorage(uint256 _projectId)\n    public\n    onlyUnlockedProject(_projectId)\n    onlyOperatorsOrArtist(_projectId)\n    onlyNoTokensMinted(_projectId)\n  {\n    projects[_projectId].useStorage = !projects[_projectId].useStorage;\n\n    emit UpdateProject(_projectId);\n  }\n\n  function getTokenById(uint256 _tokenId)\n    public\n    view\n    returns (uint256 projectId, bytes32 hash)\n  {\n    projectId = tokens[_tokenId].projectId;\n    hash = tokens[_tokenId].hash;\n  }\n\n  function mint(\n    address _to,\n    uint256 _projectId,\n    address _by\n  )\n    external\n    onlyMinters\n    onlyActiveProjectOrArtist(_projectId, _by)\n    onlyUnpausedProjectOrArtist(_projectId, _by)\n    onlyMaxTokensPerAddress(_projectId, _to)\n    onlyMaxIterations(_projectId)\n    returns (uint256 _tokenId)\n  {\n    uint256 tokenId = _mintProjectToken(_projectId, _to);\n    return tokenId;\n  }\n\n  function _mintProjectToken(uint256 _projectId, address _to)\n    internal\n    returns (uint256 _tokenId)\n  {\n    uint256 nextTokenId = (_projectId * MAX_TOKENS_PER_PROJECT) +\n      projects[_projectId].iterations;\n    projects[_projectId].iterations = projects[_projectId].iterations.add(1);\n\n    bytes32 nextTokenHash = keccak256(\n      abi.encodePacked(\n        mintoriaRandomizerContract.getValue(),\n        block.number - 1,\n        blockhash(block.number - 1),\n        projects[_projectId].iterations,\n        msg.sender\n      )\n    );\n    tokens[nextTokenId].hash = nextTokenHash;\n    tokens[nextTokenId].projectId = _projectId;\n\n    projects[_projectId].addressToTokenCount[_to] = projects[_projectId]\n      .addressToTokenCount[_to]\n      .add(1);\n    projects[_projectId].tokenIds.push(nextTokenId);\n\n    _mint(_to, nextTokenId);\n    emit Mint(_to, nextTokenId, _projectId, nextTokenHash);\n\n    return nextTokenId;\n  }\n\n  function tokenURI(uint256 _tokenId)\n    public\n    view\n    override(ERC721)\n    onlyExistingToken(_tokenId)\n    returns (string memory)\n  {\n    return\n      string(\n        abi.encodePacked(\n          projects[tokens[_tokenId].projectId].baseURI,\n          Strings.toString(_tokenId)\n        )\n      );\n  }\n\n  function royaltyInfo(uint256 _tokenId, uint256 _salePrice)\n    external\n    view\n    override\n    onlyExistingToken(_tokenId)\n    returns (address receiver, uint256 royaltyAmount)\n  {\n    Project storage project = projects[tokens[_tokenId].projectId];\n    uint256 royaltyFeePercentage = project.royaltyFeePercentage;\n    address artistAddress = project.artistAddress;\n\n    if (royaltyFeePercentage > 0) {\n      return (artistAddress, (_salePrice * royaltyFeePercentage) / 100);\n    }\n    return (address(0), 0);\n  }\n\n  function supportsInterface(bytes4 interfaceId)\n    public\n    view\n    virtual\n    override(ERC165, ERC721, ERC721Enumerable)\n    returns (bool)\n  {\n    if (interfaceId == _INTERFACE_ID_ERC2981) {\n      return true;\n    }\n    return super.supportsInterface(interfaceId);\n  }\n\n  function _beforeTokenTransfer(\n    address from,\n    address to,\n    uint256 amount\n  ) internal override(ERC721, ERC721Enumerable) {\n    super._beforeTokenTransfer(from, to, amount);\n  }\n}\n",
  "sourcePath": "/Users/stefan.paduraru/Projects/Personal/nft-smart-contract/src/contracts/Mintoria.store.sol",
  "compiler": {
    "name": "solc",
    "version": "0.8.13+commit.abaa5c0e.Emscripten.clang"
  },
  "schemaVersion": "3.4.3",
  "updatedAt": "2022-04-22T17:22:26.319Z",
  "networkType": "ethereum",
  "devdoc": {
    "kind": "dev",
    "methods": {
      "approve(address,uint256)": {
        "details": "See {IERC721-approve}."
      },
      "balanceOf(address)": {
        "details": "See {IERC721-balanceOf}."
      },
      "burn(uint256)": {
        "details": "Burns `tokenId`. See {ERC721-_burn}. Requirements: - The caller must own `tokenId` or be an approved operator."
      },
      "getApproved(uint256)": {
        "details": "See {IERC721-getApproved}."
      },
      "isApprovedForAll(address,address)": {
        "details": "See {IERC721-isApprovedForAll}."
      },
      "name()": {
        "details": "See {IERC721Metadata-name}."
      },
      "owner()": {
        "details": "Returns the address of the current owner."
      },
      "ownerOf(uint256)": {
        "details": "See {IERC721-ownerOf}."
      },
      "renounceOwnership()": {
        "details": "Leaves the contract without owner. It will not be possible to call `onlyOwner` functions anymore. Can only be called by the current owner. NOTE: Renouncing ownership will leave the contract without an owner, thereby removing any functionality that is only available to the owner."
      },
      "royaltyInfo(uint256,uint256)": {
        "params": {
          "_salePrice": "- the sale price of the NFT asset specified by _tokenId",
          "_tokenId": "- the NFT asset queried for royalty information"
        },
        "returns": {
          "receiver": "- address of who should be sent the royalty payment",
          "royaltyAmount": "- the royalty payment amount for _salePrice"
        }
      },
      "safeTransferFrom(address,address,uint256)": {
        "details": "See {IERC721-safeTransferFrom}."
      },
      "safeTransferFrom(address,address,uint256,bytes)": {
        "details": "See {IERC721-safeTransferFrom}."
      },
      "setApprovalForAll(address,bool)": {
        "details": "See {IERC721-setApprovalForAll}."
      },
      "symbol()": {
        "details": "See {IERC721Metadata-symbol}."
      },
      "tokenByIndex(uint256)": {
        "details": "See {IERC721Enumerable-tokenByIndex}."
      },
      "tokenOfOwnerByIndex(address,uint256)": {
        "details": "See {IERC721Enumerable-tokenOfOwnerByIndex}."
      },
      "totalSupply()": {
        "details": "See {IERC721Enumerable-totalSupply}."
      },
      "transferFrom(address,address,uint256)": {
        "details": "See {IERC721-transferFrom}."
      },
      "transferOwnership(address)": {
        "details": "Transfers ownership of the contract to a new account (`newOwner`). Can only be called by the current owner."
      }
    },
    "version": 1
  },
  "userdoc": {
    "kind": "user",
    "methods": {},
    "version": 1
  }
}